{"contracts/ToreToken.sol":{"ToreToken":{"abi":[{"inputs":[{"internalType":"address","name":"initialOwner","type":"address"}],"stateMutability":"nonpayable","type":"constructor"},{"inputs":[{"internalType":"address","name":"spender","type":"address"},{"internalType":"uint256","name":"allowance","type":"uint256"},{"internalType":"uint256","name":"needed","type":"uint256"}],"name":"ERC20InsufficientAllowance","type":"error"},{"inputs":[{"internalType":"address","name":"sender","type":"address"},{"internalType":"uint256","name":"balance","type":"uint256"},{"internalType":"uint256","name":"needed","type":"uint256"}],"name":"ERC20InsufficientBalance","type":"error"},{"inputs":[{"internalType":"address","name":"approver","type":"address"}],"name":"ERC20InvalidApprover","type":"error"},{"inputs":[{"internalType":"address","name":"receiver","type":"address"}],"name":"ERC20InvalidReceiver","type":"error"},{"inputs":[{"internalType":"address","name":"sender","type":"address"}],"name":"ERC20InvalidSender","type":"error"},{"inputs":[{"internalType":"address","name":"spender","type":"address"}],"name":"ERC20InvalidSpender","type":"error"},{"inputs":[{"internalType":"address","name":"owner","type":"address"}],"name":"OwnableInvalidOwner","type":"error"},{"inputs":[{"internalType":"address","name":"account","type":"address"}],"name":"OwnableUnauthorizedAccount","type":"error"},{"anonymous":false,"inputs":[{"indexed":true,"internalType":"address","name":"owner","type":"address"},{"indexed":true,"internalType":"address","name":"spender","type":"address"},{"indexed":false,"internalType":"uint256","name":"value","type":"uint256"}],"name":"Approval","type":"event"},{"anonymous":false,"inputs":[{"indexed":false,"internalType":"uint256","name":"totalAmount","type":"uint256"},{"indexed":false,"internalType":"uint256","name":"recipientCount","type":"uint256"}],"name":"BatchTransferCompleted","type":"event"},{"anonymous":false,"inputs":[{"indexed":true,"internalType":"address","name":"contractAddress","type":"address"}],"name":"GameContractAdded","type":"event"},{"anonymous":false,"inputs":[{"indexed":true,"internalType":"address","name":"contractAddress","type":"address"}],"name":"GameContractRemoved","type":"event"},{"anonymous":false,"inputs":[{"indexed":true,"internalType":"address","name":"manager","type":"address"}],"name":"GameManagerAdded","type":"event"},{"anonymous":false,"inputs":[{"indexed":true,"internalType":"address","name":"manager","type":"address"}],"name":"GameManagerRemoved","type":"event"},{"anonymous":false,"inputs":[{"indexed":true,"internalType":"address","name":"player","type":"address"},{"indexed":false,"internalType":"uint256","name":"amount","type":"uint256"}],"name":"GameRewardDistributed","type":"event"},{"anonymous":false,"inputs":[{"indexed":false,"internalType":"bool","name":"enabled","type":"bool"}],"name":"MintingEnabled","type":"event"},{"anonymous":false,"inputs":[{"indexed":true,"internalType":"address","name":"previousOwner","type":"address"},{"indexed":true,"internalType":"address","name":"newOwner","type":"address"}],"name":"OwnershipTransferred","type":"event"},{"anonymous":false,"inputs":[{"indexed":true,"internalType":"address","name":"from","type":"address"},{"indexed":false,"internalType":"uint256","name":"amount","type":"uint256"}],"name":"TokensBurned","type":"event"},{"anonymous":false,"inputs":[{"indexed":true,"internalType":"address","name":"to","type":"address"},{"indexed":false,"internalType":"uint256","name":"amount","type":"uint256"}],"name":"TokensMinted","type":"event"},{"anonymous":false,"inputs":[{"indexed":true,"internalType":"address","name":"from","type":"address"},{"indexed":true,"internalType":"address","name":"to","type":"address"},{"indexed":false,"internalType":"uint256","name":"value","type":"uint256"}],"name":"Transfer","type":"event"},{"inputs":[{"internalType":"address","name":"contractAddress","type":"address"}],"name":"addGameContract","outputs":[],"stateMutability":"nonpayable","type":"function"},{"inputs":[{"internalType":"address","name":"manager","type":"address"}],"name":"addGameManager","outputs":[],"stateMutability":"nonpayable","type":"function"},{"inputs":[{"internalType":"address","name":"owner","type":"address"},{"internalType":"address","name":"spender","type":"address"}],"name":"allowance","outputs":[{"internalType":"uint256","name":"","type":"uint256"}],"stateMutability":"view","type":"function"},{"inputs":[{"internalType":"address","name":"spender","type":"address"},{"internalType":"uint256","name":"value","type":"uint256"}],"name":"approve","outputs":[{"internalType":"bool","name":"","type":"bool"}],"stateMutability":"nonpayable","type":"function"},{"inputs":[{"internalType":"address","name":"account","type":"address"}],"name":"balanceOf","outputs":[{"internalType":"uint256","name":"","type":"uint256"}],"stateMutability":"view","type":"function"},{"inputs":[{"internalType":"address[]","name":"recipients","type":"address[]"},{"internalType":"uint256[]","name":"amounts","type":"uint256[]"}],"name":"batchTransfer","outputs":[],"stateMutability":"nonpayable","type":"function"},{"inputs":[{"internalType":"uint256","name":"amount","type":"uint256"}],"name":"burn","outputs":[],"stateMutability":"nonpayable","type":"function"},{"inputs":[{"internalType":"address","name":"account","type":"address"},{"internalType":"uint256","name":"amount","type":"uint256"}],"name":"burnFrom","outputs":[],"stateMutability":"nonpayable","type":"function"},{"inputs":[],"name":"decimals","outputs":[{"internalType":"uint8","name":"","type":"uint8"}],"stateMutability":"pure","type":"function"},{"inputs":[{"internalType":"address","name":"player","type":"address"},{"internalType":"uint256","name":"amount","type":"uint256"}],"name":"distributeGameReward","outputs":[],"stateMutability":"nonpayable","type":"function"},{"inputs":[{"internalType":"address","name":"","type":"address"}],"name":"gameContracts","outputs":[{"internalType":"bool","name":"","type":"bool"}],"stateMutability":"view","type":"function"},{"inputs":[{"internalType":"address","name":"","type":"address"}],"name":"gameManagers","outputs":[{"internalType":"bool","name":"","type":"bool"}],"stateMutability":"view","type":"function"},{"inputs":[],"name":"getMintedAmount","outputs":[{"internalType":"uint256","name":"","type":"uint256"}],"stateMutability":"view","type":"function"},{"inputs":[{"internalType":"address","name":"contractAddress","type":"address"}],"name":"isGameContract","outputs":[{"internalType":"bool","name":"","type":"bool"}],"stateMutability":"view","type":"function"},{"inputs":[{"internalType":"address","name":"manager","type":"address"}],"name":"isGameManager","outputs":[{"internalType":"bool","name":"","type":"bool"}],"stateMutability":"view","type":"function"},{"inputs":[],"name":"isMintingEnabled","outputs":[{"internalType":"bool","name":"","type":"bool"}],"stateMutability":"view","type":"function"},{"inputs":[],"name":"maxSupply","outputs":[{"internalType":"uint256","name":"","type":"uint256"}],"stateMutability":"pure","type":"function"},{"inputs":[{"internalType":"address","name":"to","type":"address"},{"internalType":"uint256","name":"amount","type":"uint256"}],"name":"mint","outputs":[],"stateMutability":"nonpayable","type":"function"},{"inputs":[],"name":"mintedAmount","outputs":[{"internalType":"uint256","name":"","type":"uint256"}],"stateMutability":"view","type":"function"},{"inputs":[],"name":"mintingEnabled","outputs":[{"internalType":"bool","name":"","type":"bool"}],"stateMutability":"view","type":"function"},{"inputs":[],"name":"name","outputs":[{"internalType":"string","name":"","type":"string"}],"stateMutability":"view","type":"function"},{"inputs":[],"name":"owner","outputs":[{"internalType":"address","name":"","type":"address"}],"stateMutability":"view","type":"function"},{"inputs":[{"internalType":"address","name":"contractAddress","type":"address"}],"name":"removeGameContract","outputs":[],"stateMutability":"nonpayable","type":"function"},{"inputs":[{"internalType":"address","name":"manager","type":"address"}],"name":"removeGameManager","outputs":[],"stateMutability":"nonpayable","type":"function"},{"inputs":[],"name":"renounceOwnership","outputs":[],"stateMutability":"nonpayable","type":"function"},{"inputs":[{"internalType":"bool","name":"enabled","type":"bool"}],"name":"setMintingEnabled","outputs":[],"stateMutability":"nonpayable","type":"function"},{"inputs":[],"name":"symbol","outputs":[{"internalType":"string","name":"","type":"string"}],"stateMutability":"view","type":"function"},{"inputs":[],"name":"totalSupply","outputs":[{"internalType":"uint256","name":"","type":"uint256"}],"stateMutability":"view","type":"function"},{"inputs":[{"internalType":"address","name":"to","type":"address"},{"internalType":"uint256","name":"value","type":"uint256"}],"name":"transfer","outputs":[{"internalType":"bool","name":"","type":"bool"}],"stateMutability":"nonpayable","type":"function"},{"inputs":[{"internalType":"address","name":"from","type":"address"},{"internalType":"address","name":"to","type":"address"},{"internalType":"uint256","name":"value","type":"uint256"}],"name":"transferFrom","outputs":[{"internalType":"bool","name":"","type":"bool"}],"stateMutability":"nonpayable","type":"function"},{"inputs":[{"internalType":"address","name":"newOwner","type":"address"}],"name":"transferOwnership","outputs":[],"stateMutability":"nonpayable","type":"function"}],"evm":{"bytecode":{"linkReferences":{},"object":"60806040526008805460ff19166001179055600060095534801561002257600080fd5b50604051611e60380380611e60833981016040819052610041916102d6565b806040518060400160405280600a8152602001692a37b932902a37b5b2b760b11b81525060405180604001604052806004815260200163544f524560e01b815250816003908161009191906103a5565b50600461009e82826103a5565b5050506001600160a01b0381166100d057604051631e4fbdf760e01b8152600060048201526024015b60405180910390fd5b6100d981610120565b506100fd816100ea6012600a610562565b6100f890633b9aca00610571565b610172565b6101096012600a610562565b61011790633b9aca00610571565b6009555061059b565b600580546001600160a01b038381166001600160a01b0319831681179093556040519116919082907f8be0079c531659141344cd1fd0a4f28419497f9722a3daafe3b4186f6b6457e090600090a35050565b6001600160a01b03821661019c5760405163ec442f0560e01b8152600060048201526024016100c7565b6101a8600083836101ac565b5050565b6001600160a01b0383166101d75780600260008282546101cc9190610588565b909155506102499050565b6001600160a01b0383166000908152602081905260409020548181101561022a5760405163391434e360e21b81526001600160a01b038516600482015260248101829052604481018390526064016100c7565b6001600160a01b03841660009081526020819052604090209082900390555b6001600160a01b03821661026557600280548290039055610284565b6001600160a01b03821660009081526020819052604090208054820190555b816001600160a01b0316836001600160a01b03167fddf252ad1be2c89b69c2b068fc378daa952ba7f163c4a11628f55a4df523b3ef836040516102c991815260200190565b60405180910390a3505050565b6000602082840312156102e857600080fd5b81516001600160a01b03811681146102ff57600080fd5b9392505050565b634e487b7160e01b600052604160045260246000fd5b600181811c9082168061033057607f821691505b60208210810361035057634e487b7160e01b600052602260045260246000fd5b50919050565b601f8211156103a057806000526020600020601f840160051c8101602085101561037d5750805b601f840160051c820191505b8181101561039d5760008155600101610389565b50505b505050565b81516001600160401b038111156103be576103be610306565b6103d2816103cc845461031c565b84610356565b6020601f82116001811461040657600083156103ee5750848201515b600019600385901b1c1916600184901b17845561039d565b600084815260208120601f198516915b828110156104365787850151825560209485019460019092019101610416565b50848210156104545786840151600019600387901b60f8161c191681555b50505050600190811b01905550565b634e487b7160e01b600052601160045260246000fd5b6001815b60018411156104b45780850481111561049857610498610463565b60018416156104a657908102905b60019390931c92800261047d565b935093915050565b6000826104cb5750600161055c565b816104d85750600061055c565b81600181146104ee57600281146104f857610514565b600191505061055c565b60ff84111561050957610509610463565b50506001821b61055c565b5060208310610133831016604e8410600b8410161715610537575081810a61055c565b6105446000198484610479565b806000190482111561055857610558610463565b0290505b92915050565b60006102ff60ff8416836104bc565b808202811582820484141761055c5761055c610463565b8082018082111561055c5761055c610463565b6118b6806105aa6000396000f3fe608060405234801561001057600080fd5b50600436106101e55760003560e01c806377620c1c1161010f5780639fd6db12116100a2578063dd62ed3e11610071578063dd62ed3e14610404578063e045fd041461043d578063f2fde38b14610469578063fa1bbe781461047c57600080fd5b80639fd6db12146103b0578063a9059cbb146103bd578063c04a7d0d146103d0578063d5abeb01146103fc57600080fd5b806388ab4168116100de57806388ab41681461037257806388d695b21461037a5780638da5cb5b1461038d57806395d89b41146103a857600080fd5b806377620c1c1461031657806379cc67901461032957806381cd08ee1461033c578063873911331461034f57600080fd5b806340c10f19116101875780635c74e025116101565780635c74e025146102c55780636ddd474d146102d857806370a08231146102fb578063715018a61461030e57600080fd5b806340c10f191461028157806342966c68146102945780634ea3871a146102a757806355c7ba14146102ba57600080fd5b806323b872dd116101c357806323b872dd146102415780632d38024214610254578063313ce5671461025d57806337d192141461026c57600080fd5b806306fdde03146101ea578063095ea7b31461020857806318160ddd1461022b575b600080fd5b6101f261048f565b6040516101ff91906113f5565b60405180910390f35b61021b61021636600461145f565b610521565b60405190151581526020016101ff565b61023361053b565b6040519081526020016101ff565b61021b61024f366004611489565b61054b565b61023360095481565b604051601281526020016101ff565b61027f61027a3660046114c6565b61056f565b005b61027f61028f36600461145f565b6105c0565b61027f6102a23660046114e8565b610779565b61027f6102b5366004611501565b610822565b60085460ff1661021b565b61027f6102d33660046114c6565b610871565b61021b6102e63660046114c6565b60066020526000908152604090205460ff1681565b6102336103093660046114c6565b6108c2565b61027f6108e0565b61027f6103243660046114c6565b6108f4565b61027f61033736600461145f565b6109a9565b61027f61034a3660046114c6565b610aab565b61021b61035d3660046114c6565b60076020526000908152604090205460ff1681565b600954610233565b61027f61038836600461156f565b610b61565b6005546040516001600160a01b0390911681526020016101ff565b6101f2610e28565b60085461021b9060ff1681565b61021b6103cb36600461145f565b610e37565b61021b6103de3660046114c6565b6001600160a01b031660009081526006602052604090205460ff1690565b610233610e45565b6102336104123660046115e0565b6001600160a01b03918216600090815260016020908152604080832093909416825291909152205490565b61021b61044b3660046114c6565b6001600160a01b031660009081526007602052604090205460ff1690565b61027f6104773660046114c6565b610e61565b61027f61048a36600461145f565b610e9f565b60606003805461049e90611613565b80601f01602080910402602001604051908101604052809291908181526020018280546104ca90611613565b80156105175780601f106104ec57610100808354040283529160200191610517565b820191906000526020600020905b8154815290600101906020018083116104fa57829003601f168201915b5050505050905090565b60003361052f818585611017565b60019150505b92915050565b600061054660025490565b905090565b600033610559858285611029565b6105648585856110a8565b506001949350505050565b610577611107565b6001600160a01b038116600081815260076020526040808220805460ff19169055517f6de82f827471160af273ccdc03ce8be3a40f2f9fe7fa4110cd02799717bb3d919190a250565b6105c8611107565b60085460ff1661061f5760405162461bcd60e51b815260206004820152601e60248201527f546f7265546f6b656e3a204d696e74696e672069732064697361626c6564000060448201526064015b60405180910390fd5b6001600160a01b0382166106755760405162461bcd60e51b815260206004820152601a60248201527f546f7265546f6b656e3a20496e76616c696420616464726573730000000000006044820152606401610616565b600081116106955760405162461bcd60e51b81526004016106169061164d565b6106a16012600a611792565b6106af90633b9aca006117a1565b816009546106bd91906117b8565b11156107155760405162461bcd60e51b815260206004820152602160248201527f546f7265546f6b656e3a2045786365656473206d6178696d756d20737570706c6044820152607960f81b6064820152608401610616565b61071f8282611134565b806009600082825461073191906117b8565b90915550506040518181526001600160a01b038316907f3f2c9d57c068687834f0de942a9babb9e5acab57d516d3480a3c16ee165a4273906020015b60405180910390a25050565b610781611107565b600081116107a15760405162461bcd60e51b81526004016106169061164d565b806107ab336108c2565b10156107c95760405162461bcd60e51b8152600401610616906117cb565b6107d3338261116e565b80600960008282546107e59190611802565b909155505060405181815233907ffd38818f5291bf0bb3a2a48aadc06ba8757865d1dabd804585338aab3009dcb69060200160405180910390a250565b61082a611107565b6008805460ff19168215159081179091556040519081527fb6c727d83bace6eef762275cc927295dcd906c8041f03f05cf07685323bfb6da9060200160405180910390a150565b610879611107565b6001600160a01b038116600081815260066020526040808220805460ff19169055517f2787914e393eae017c5d63972ae40b8a6e095f82f7c2df7b8cc0947364f44c3b9190a250565b6001600160a01b038116600090815260208190526040812054610535565b6108e8611107565b6108f260006111a4565b565b6108fc611107565b6001600160a01b03811661095d5760405162461bcd60e51b815260206004820152602260248201527f546f7265546f6b656e3a20496e76616c6964206d616e61676572206164647265604482015261737360f01b6064820152608401610616565b6001600160a01b038116600081815260076020526040808220805460ff19166001179055517fa0334d5e7f40dc27ad1f00eea8f14a0aa36b54c3d390f2d074e877fd1d0c64fe9190a250565b6109b1611107565b6001600160a01b038216610a075760405162461bcd60e51b815260206004820152601a60248201527f546f7265546f6b656e3a20496e76616c696420616464726573730000000000006044820152606401610616565b60008111610a275760405162461bcd60e51b81526004016106169061164d565b80610a31836108c2565b1015610a4f5760405162461bcd60e51b8152600401610616906117cb565b610a59828261116e565b8060096000828254610a6b9190611802565b90915550506040518181526001600160a01b038316907ffd38818f5291bf0bb3a2a48aadc06ba8757865d1dabd804585338aab3009dcb69060200161076d565b610ab3611107565b6001600160a01b038116610b155760405162461bcd60e51b815260206004820152602360248201527f546f7265546f6b656e3a20496e76616c696420636f6e7472616374206164647260448201526265737360e81b6064820152608401610616565b6001600160a01b038116600081815260066020526040808220805460ff19166001179055517f6c714ab98f337e5ba3203dce1dd577e948f63b10c5300a075c35c4df3a2700679190a250565b3360009081526006602052604090205460ff1680610b8e57503360009081526007602052604090205460ff165b80610ba357506005546001600160a01b031633145b610bbf5760405162461bcd60e51b815260040161061690611815565b828114610c185760405162461bcd60e51b815260206004820152602160248201527f546f7265546f6b656e3a20417272617973206c656e677468206d69736d6174636044820152600d60fb1b6064820152608401610616565b82610c655760405162461bcd60e51b815260206004820152601760248201527f546f7265546f6b656e3a20456d707479206172726179730000000000000000006044820152606401610616565b6000805b82811015610c9f57838382818110610c8357610c8361186a565b9050602002013582610c9591906117b8565b9150600101610c69565b5080610caa336108c2565b1015610cc85760405162461bcd60e51b8152600401610616906117cb565b60005b84811015610de7576000868683818110610ce757610ce761186a565b9050602002016020810190610cfc91906114c6565b6001600160a01b031603610d5e5760405162461bcd60e51b8152602060048201526024808201527f546f7265546f6b656e3a20496e76616c696420726563697069656e74206164646044820152637265737360e01b6064820152608401610616565b6000848483818110610d7257610d7261186a565b9050602002013511610d965760405162461bcd60e51b81526004016106169061164d565b610ddf33878784818110610dac57610dac61186a565b9050602002016020810190610dc191906114c6565b868685818110610dd357610dd361186a565b905060200201356110a8565b600101610ccb565b5060408051828152602081018690527f7b4fb3ffa747d03664dcd3bb02933bb6ab3f5799103a30a80659a5c1aa7ecc86910160405180910390a15050505050565b60606004805461049e90611613565b60003361052f8185856110a8565b6000610e536012600a611792565b61054690633b9aca006117a1565b610e69611107565b6001600160a01b038116610e9357604051631e4fbdf760e01b815260006004820152602401610616565b610e9c816111a4565b50565b3360009081526006602052604090205460ff1680610ecc57503360009081526007602052604090205460ff165b80610ee157506005546001600160a01b031633145b610efd5760405162461bcd60e51b815260040161061690611815565b6001600160a01b038216610f5d5760405162461bcd60e51b815260206004820152602160248201527f546f7265546f6b656e3a20496e76616c696420706c61796572206164647265736044820152607360f81b6064820152608401610616565b60008111610f7d5760405162461bcd60e51b81526004016106169061164d565b610f878282611134565b8060096000828254610f9991906117b8565b90915550506040518181526001600160a01b038316907f824c2a2a49e9cfaa3b02241c2dc5368e338376d92a398ddfb7d15a56eb7c0d619060200160405180910390a2816001600160a01b03167f3f2c9d57c068687834f0de942a9babb9e5acab57d516d3480a3c16ee165a42738260405161076d91815260200190565b61102483838360016111f6565b505050565b6001600160a01b038381166000908152600160209081526040808320938616835292905220546000198110156110a2578181101561109357604051637dc7a0d960e11b81526001600160a01b03841660048201526024810182905260448101839052606401610616565b6110a2848484840360006111f6565b50505050565b6001600160a01b0383166110d257604051634b637e8f60e11b815260006004820152602401610616565b6001600160a01b0382166110fc5760405163ec442f0560e01b815260006004820152602401610616565b6110248383836112cb565b6005546001600160a01b031633146108f25760405163118cdaa760e01b8152336004820152602401610616565b6001600160a01b03821661115e5760405163ec442f0560e01b815260006004820152602401610616565b61116a600083836112cb565b5050565b6001600160a01b03821661119857604051634b637e8f60e11b815260006004820152602401610616565b61116a826000836112cb565b600580546001600160a01b038381166001600160a01b0319831681179093556040519116919082907f8be0079c531659141344cd1fd0a4f28419497f9722a3daafe3b4186f6b6457e090600090a35050565b6001600160a01b0384166112205760405163e602df0560e01b815260006004820152602401610616565b6001600160a01b03831661124a57604051634a1406b160e11b815260006004820152602401610616565b6001600160a01b03808516600090815260016020908152604080832093871683529290522082905580156110a257826001600160a01b0316846001600160a01b03167f8c5be1e5ebec7d5bd14f71427d1e84f3dd0314c0f7b2291e5b200ac8c7c3b925846040516112bd91815260200190565b60405180910390a350505050565b6001600160a01b0383166112f65780600260008282546112eb91906117b8565b909155506113689050565b6001600160a01b038316600090815260208190526040902054818110156113495760405163391434e360e21b81526001600160a01b03851660048201526024810182905260448101839052606401610616565b6001600160a01b03841660009081526020819052604090209082900390555b6001600160a01b038216611384576002805482900390556113a3565b6001600160a01b03821660009081526020819052604090208054820190555b816001600160a01b0316836001600160a01b03167fddf252ad1be2c89b69c2b068fc378daa952ba7f163c4a11628f55a4df523b3ef836040516113e891815260200190565b60405180910390a3505050565b602081526000825180602084015260005b818110156114235760208186018101516040868401015201611406565b506000604082850101526040601f19601f83011684010191505092915050565b80356001600160a01b038116811461145a57600080fd5b919050565b6000806040838503121561147257600080fd5b61147b83611443565b946020939093013593505050565b60008060006060848603121561149e57600080fd5b6114a784611443565b92506114b560208501611443565b929592945050506040919091013590565b6000602082840312156114d857600080fd5b6114e182611443565b9392505050565b6000602082840312156114fa57600080fd5b5035919050565b60006020828403121561151357600080fd5b813580151581146114e157600080fd5b60008083601f84011261153557600080fd5b50813567ffffffffffffffff81111561154d57600080fd5b6020830191508360208260051b850101111561156857600080fd5b9250929050565b6000806000806040858703121561158557600080fd5b843567ffffffffffffffff81111561159c57600080fd5b6115a887828801611523565b909550935050602085013567ffffffffffffffff8111156115c857600080fd5b6115d487828801611523565b95989497509550505050565b600080604083850312156115f357600080fd5b6115fc83611443565b915061160a60208401611443565b90509250929050565b600181811c9082168061162757607f821691505b60208210810361164757634e487b7160e01b600052602260045260246000fd5b50919050565b60208082526028908201527f546f7265546f6b656e3a20416d6f756e74206d75737420626520677265617465604082015267072207468616e20360c41b606082015260800190565b634e487b7160e01b600052601160045260246000fd5b6001815b60018411156116e6578085048111156116ca576116ca611695565b60018416156116d857908102905b60019390931c9280026116af565b935093915050565b6000826116fd57506001610535565b8161170a57506000610535565b8160018114611720576002811461172a57611746565b6001915050610535565b60ff84111561173b5761173b611695565b50506001821b610535565b5060208310610133831016604e8410600b8410161715611769575081810a610535565b61177660001984846116ab565b806000190482111561178a5761178a611695565b029392505050565b60006114e160ff8416836116ee565b808202811582820484141761053557610535611695565b8082018082111561053557610535611695565b6020808252601f908201527f546f7265546f6b656e3a20496e73756666696369656e742062616c616e636500604082015260600190565b8181038181111561053557610535611695565b60208082526035908201527f546f7265546f6b656e3a204f6e6c7920617574686f72697a65642067616d6520604082015274636f6e747261637473206f72206d616e616765727360581b606082015260800190565b634e487b7160e01b600052603260045260246000fdfea26469706673582212205af45a1ea0b6eb05e51ae1a5eb000043d605a4c6cecff01a49171bf068a552d064736f6c634300081a0033","opcodes":"PUSH1 0x80 PUSH1 0x40 MSTORE PUSH1 0x8 DUP1 SLOAD PUSH1 0xFF NOT AND PUSH1 0x1 OR SWAP1 SSTORE PUSH1 0x0 PUSH1 0x9 SSTORE CALLVALUE DUP1 ISZERO PUSH2 0x22 JUMPI PUSH1 0x0 DUP1 REVERT JUMPDEST POP PUSH1 0x40 MLOAD PUSH2 0x1E60 CODESIZE SUB DUP1 PUSH2 0x1E60 DUP4 CODECOPY DUP2 ADD PUSH1 0x40 DUP2 SWAP1 MSTORE PUSH2 0x41 SWAP2 PUSH2 0x2D6 JUMP JUMPDEST DUP1 PUSH1 0x40 MLOAD DUP1 PUSH1 0x40 ADD PUSH1 0x40 MSTORE DUP1 PUSH1 0xA DUP2 MSTORE PUSH1 0x20 ADD PUSH10 0x2A37B932902A37B5B2B7 PUSH1 0xB1 SHL DUP2 MSTORE POP PUSH1 0x40 MLOAD DUP1 PUSH1 0x40 ADD PUSH1 0x40 MSTORE DUP1 PUSH1 0x4 DUP2 MSTORE PUSH1 0x20 ADD PUSH4 0x544F5245 PUSH1 0xE0 SHL DUP2 MSTORE POP DUP2 PUSH1 0x3 SWAP1 DUP2 PUSH2 0x91 SWAP2 SWAP1 PUSH2 0x3A5 JUMP JUMPDEST POP PUSH1 0x4 PUSH2 0x9E DUP3 DUP3 PUSH2 0x3A5 JUMP JUMPDEST POP POP POP PUSH1 0x1 PUSH1 0x1 PUSH1 0xA0 SHL SUB DUP2 AND PUSH2 0xD0 JUMPI PUSH1 0x40 MLOAD PUSH4 0x1E4FBDF7 PUSH1 0xE0 SHL DUP2 MSTORE PUSH1 0x0 PUSH1 0x4 DUP3 ADD MSTORE PUSH1 0x24 ADD JUMPDEST PUSH1 0x40 MLOAD DUP1 SWAP2 SUB SWAP1 REVERT JUMPDEST PUSH2 0xD9 DUP2 PUSH2 0x120 JUMP JUMPDEST POP PUSH2 0xFD DUP2 PUSH2 0xEA PUSH1 0x12 PUSH1 0xA PUSH2 0x562 JUMP JUMPDEST PUSH2 0xF8 SWAP1 PUSH4 0x3B9ACA00 PUSH2 0x571 JUMP JUMPDEST PUSH2 0x172 JUMP JUMPDEST PUSH2 0x109 PUSH1 0x12 PUSH1 0xA PUSH2 0x562 JUMP JUMPDEST PUSH2 0x117 SWAP1 PUSH4 0x3B9ACA00 PUSH2 0x571 JUMP JUMPDEST PUSH1 0x9 SSTORE POP PUSH2 0x59B JUMP JUMPDEST PUSH1 0x5 DUP1 SLOAD PUSH1 0x1 PUSH1 0x1 PUSH1 0xA0 SHL SUB DUP4 DUP2 AND PUSH1 0x1 PUSH1 0x1 PUSH1 0xA0 SHL SUB NOT DUP4 AND DUP2 OR SWAP1 SWAP4 SSTORE PUSH1 0x40 MLOAD SWAP2 AND SWAP2 SWAP1 DUP3 SWAP1 PUSH32 0x8BE0079C531659141344CD1FD0A4F28419497F9722A3DAAFE3B4186F6B6457E0 SWAP1 PUSH1 0x0 SWAP1 LOG3 POP POP JUMP JUMPDEST PUSH1 0x1 PUSH1 0x1 PUSH1 0xA0 SHL SUB DUP3 AND PUSH2 0x19C JUMPI PUSH1 0x40 MLOAD PUSH4 0xEC442F05 PUSH1 0xE0 SHL DUP2 MSTORE PUSH1 0x0 PUSH1 0x4 DUP3 ADD MSTORE PUSH1 0x24 ADD PUSH2 0xC7 JUMP JUMPDEST PUSH2 0x1A8 PUSH1 0x0 DUP4 DUP4 PUSH2 0x1AC JUMP JUMPDEST POP POP JUMP JUMPDEST PUSH1 0x1 PUSH1 0x1 PUSH1 0xA0 SHL SUB DUP4 AND PUSH2 0x1D7 JUMPI DUP1 PUSH1 0x2 PUSH1 0x0 DUP3 DUP3 SLOAD PUSH2 0x1CC SWAP2 SWAP1 PUSH2 0x588 JUMP JUMPDEST SWAP1 SWAP2 SSTORE POP PUSH2 0x249 SWAP1 POP JUMP JUMPDEST PUSH1 0x1 PUSH1 0x1 PUSH1 0xA0 SHL SUB DUP4 AND PUSH1 0x0 SWAP1 DUP2 MSTORE PUSH1 0x20 DUP2 SWAP1 MSTORE PUSH1 0x40 SWAP1 KECCAK256 SLOAD DUP2 DUP2 LT ISZERO PUSH2 0x22A JUMPI PUSH1 0x40 MLOAD PUSH4 0x391434E3 PUSH1 0xE2 SHL DUP2 MSTORE PUSH1 0x1 PUSH1 0x1 PUSH1 0xA0 SHL SUB DUP6 AND PUSH1 0x4 DUP3 ADD MSTORE PUSH1 0x24 DUP2 ADD DUP3 SWAP1 MSTORE PUSH1 0x44 DUP2 ADD DUP4 SWAP1 MSTORE PUSH1 0x64 ADD PUSH2 0xC7 JUMP JUMPDEST PUSH1 0x1 PUSH1 0x1 PUSH1 0xA0 SHL SUB DUP5 AND PUSH1 0x0 SWAP1 DUP2 MSTORE PUSH1 0x20 DUP2 SWAP1 MSTORE PUSH1 0x40 SWAP1 KECCAK256 SWAP1 DUP3 SWAP1 SUB SWAP1 SSTORE JUMPDEST PUSH1 0x1 PUSH1 0x1 PUSH1 0xA0 SHL SUB DUP3 AND PUSH2 0x265 JUMPI PUSH1 0x2 DUP1 SLOAD DUP3 SWAP1 SUB SWAP1 SSTORE PUSH2 0x284 JUMP JUMPDEST PUSH1 0x1 PUSH1 0x1 PUSH1 0xA0 SHL SUB DUP3 AND PUSH1 0x0 SWAP1 DUP2 MSTORE PUSH1 0x20 DUP2 SWAP1 MSTORE PUSH1 0x40 SWAP1 KECCAK256 DUP1 SLOAD DUP3 ADD SWAP1 SSTORE JUMPDEST DUP2 PUSH1 0x1 PUSH1 0x1 PUSH1 0xA0 SHL SUB AND DUP4 PUSH1 0x1 PUSH1 0x1 PUSH1 0xA0 SHL SUB AND PUSH32 0xDDF252AD1BE2C89B69C2B068FC378DAA952BA7F163C4A11628F55A4DF523B3EF DUP4 PUSH1 0x40 MLOAD PUSH2 0x2C9 SWAP2 DUP2 MSTORE PUSH1 0x20 ADD SWAP1 JUMP JUMPDEST PUSH1 0x40 MLOAD DUP1 SWAP2 SUB SWAP1 LOG3 POP POP POP JUMP JUMPDEST PUSH1 0x0 PUSH1 0x20 DUP3 DUP5 SUB SLT ISZERO PUSH2 0x2E8 JUMPI PUSH1 0x0 DUP1 REVERT JUMPDEST DUP2 MLOAD PUSH1 0x1 PUSH1 0x1 PUSH1 0xA0 SHL SUB DUP2 AND DUP2 EQ PUSH2 0x2FF JUMPI PUSH1 0x0 DUP1 REVERT JUMPDEST SWAP4 SWAP3 POP POP POP JUMP JUMPDEST PUSH4 0x4E487B71 PUSH1 0xE0 SHL PUSH1 0x0 MSTORE PUSH1 0x41 PUSH1 0x4 MSTORE PUSH1 0x24 PUSH1 0x0 REVERT JUMPDEST PUSH1 0x1 DUP2 DUP2 SHR SWAP1 DUP3 AND DUP1 PUSH2 0x330 JUMPI PUSH1 0x7F DUP3 AND SWAP2 POP JUMPDEST PUSH1 0x20 DUP3 LT DUP2 SUB PUSH2 0x350 JUMPI PUSH4 0x4E487B71 PUSH1 0xE0 SHL PUSH1 0x0 MSTORE PUSH1 0x22 PUSH1 0x4 MSTORE PUSH1 0x24 PUSH1 0x0 REVERT JUMPDEST POP SWAP2 SWAP1 POP JUMP JUMPDEST PUSH1 0x1F DUP3 GT ISZERO PUSH2 0x3A0 JUMPI DUP1 PUSH1 0x0 MSTORE PUSH1 0x20 PUSH1 0x0 KECCAK256 PUSH1 0x1F DUP5 ADD PUSH1 0x5 SHR DUP2 ADD PUSH1 0x20 DUP6 LT ISZERO PUSH2 0x37D JUMPI POP DUP1 JUMPDEST PUSH1 0x1F DUP5 ADD PUSH1 0x5 SHR DUP3 ADD SWAP2 POP JUMPDEST DUP2 DUP2 LT ISZERO PUSH2 0x39D JUMPI PUSH1 0x0 DUP2 SSTORE PUSH1 0x1 ADD PUSH2 0x389 JUMP JUMPDEST POP POP JUMPDEST POP POP POP JUMP JUMPDEST DUP2 MLOAD PUSH1 0x1 PUSH1 0x1 PUSH1 0x40 SHL SUB DUP2 GT ISZERO PUSH2 0x3BE JUMPI PUSH2 0x3BE PUSH2 0x306 JUMP JUMPDEST PUSH2 0x3D2 DUP2 PUSH2 0x3CC DUP5 SLOAD PUSH2 0x31C JUMP JUMPDEST DUP5 PUSH2 0x356 JUMP JUMPDEST PUSH1 0x20 PUSH1 0x1F DUP3 GT PUSH1 0x1 DUP2 EQ PUSH2 0x406 JUMPI PUSH1 0x0 DUP4 ISZERO PUSH2 0x3EE JUMPI POP DUP5 DUP3 ADD MLOAD JUMPDEST PUSH1 0x0 NOT PUSH1 0x3 DUP6 SWAP1 SHL SHR NOT AND PUSH1 0x1 DUP5 SWAP1 SHL OR DUP5 SSTORE PUSH2 0x39D JUMP JUMPDEST PUSH1 0x0 DUP5 DUP2 MSTORE PUSH1 0x20 DUP2 KECCAK256 PUSH1 0x1F NOT DUP6 AND SWAP2 JUMPDEST DUP3 DUP2 LT ISZERO PUSH2 0x436 JUMPI DUP8 DUP6 ADD MLOAD DUP3 SSTORE PUSH1 0x20 SWAP5 DUP6 ADD SWAP5 PUSH1 0x1 SWAP1 SWAP3 ADD SWAP2 ADD PUSH2 0x416 JUMP JUMPDEST POP DUP5 DUP3 LT ISZERO PUSH2 0x454 JUMPI DUP7 DUP5 ADD MLOAD PUSH1 0x0 NOT PUSH1 0x3 DUP8 SWAP1 SHL PUSH1 0xF8 AND SHR NOT AND DUP2 SSTORE JUMPDEST POP POP POP POP PUSH1 0x1 SWAP1 DUP2 SHL ADD SWAP1 SSTORE POP JUMP JUMPDEST PUSH4 0x4E487B71 PUSH1 0xE0 SHL PUSH1 0x0 MSTORE PUSH1 0x11 PUSH1 0x4 MSTORE PUSH1 0x24 PUSH1 0x0 REVERT JUMPDEST PUSH1 0x1 DUP2 JUMPDEST PUSH1 0x1 DUP5 GT ISZERO PUSH2 0x4B4 JUMPI DUP1 DUP6 DIV DUP2 GT ISZERO PUSH2 0x498 JUMPI PUSH2 0x498 PUSH2 0x463 JUMP JUMPDEST PUSH1 0x1 DUP5 AND ISZERO PUSH2 0x4A6 JUMPI SWAP1 DUP2 MUL SWAP1 JUMPDEST PUSH1 0x1 SWAP4 SWAP1 SWAP4 SHR SWAP3 DUP1 MUL PUSH2 0x47D JUMP JUMPDEST SWAP4 POP SWAP4 SWAP2 POP POP JUMP JUMPDEST PUSH1 0x0 DUP3 PUSH2 0x4CB JUMPI POP PUSH1 0x1 PUSH2 0x55C JUMP JUMPDEST DUP2 PUSH2 0x4D8 JUMPI POP PUSH1 0x0 PUSH2 0x55C JUMP JUMPDEST DUP2 PUSH1 0x1 DUP2 EQ PUSH2 0x4EE JUMPI PUSH1 0x2 DUP2 EQ PUSH2 0x4F8 JUMPI PUSH2 0x514 JUMP JUMPDEST PUSH1 0x1 SWAP2 POP POP PUSH2 0x55C JUMP JUMPDEST PUSH1 0xFF DUP5 GT ISZERO PUSH2 0x509 JUMPI PUSH2 0x509 PUSH2 0x463 JUMP JUMPDEST POP POP PUSH1 0x1 DUP3 SHL PUSH2 0x55C JUMP JUMPDEST POP PUSH1 0x20 DUP4 LT PUSH2 0x133 DUP4 LT AND PUSH1 0x4E DUP5 LT PUSH1 0xB DUP5 LT AND OR ISZERO PUSH2 0x537 JUMPI POP DUP2 DUP2 EXP PUSH2 0x55C JUMP JUMPDEST PUSH2 0x544 PUSH1 0x0 NOT DUP5 DUP5 PUSH2 0x479 JUMP JUMPDEST DUP1 PUSH1 0x0 NOT DIV DUP3 GT ISZERO PUSH2 0x558 JUMPI PUSH2 0x558 PUSH2 0x463 JUMP JUMPDEST MUL SWAP1 POP JUMPDEST SWAP3 SWAP2 POP POP JUMP JUMPDEST PUSH1 0x0 PUSH2 0x2FF PUSH1 0xFF DUP5 AND DUP4 PUSH2 0x4BC JUMP JUMPDEST DUP1 DUP3 MUL DUP2 ISZERO DUP3 DUP3 DIV DUP5 EQ OR PUSH2 0x55C JUMPI PUSH2 0x55C PUSH2 0x463 JUMP JUMPDEST DUP1 DUP3 ADD DUP1 DUP3 GT ISZERO PUSH2 0x55C JUMPI PUSH2 0x55C PUSH2 0x463 JUMP JUMPDEST PUSH2 0x18B6 DUP1 PUSH2 0x5AA PUSH1 0x0 CODECOPY PUSH1 0x0 RETURN INVALID PUSH1 0x80 PUSH1 0x40 MSTORE CALLVALUE DUP1 ISZERO PUSH2 0x10 JUMPI PUSH1 0x0 DUP1 REVERT JUMPDEST POP PUSH1 0x4 CALLDATASIZE LT PUSH2 0x1E5 JUMPI PUSH1 0x0 CALLDATALOAD PUSH1 0xE0 SHR DUP1 PUSH4 0x77620C1C GT PUSH2 0x10F JUMPI DUP1 PUSH4 0x9FD6DB12 GT PUSH2 0xA2 JUMPI DUP1 PUSH4 0xDD62ED3E GT PUSH2 0x71 JUMPI DUP1 PUSH4 0xDD62ED3E EQ PUSH2 0x404 JUMPI DUP1 PUSH4 0xE045FD04 EQ PUSH2 0x43D JUMPI DUP1 PUSH4 0xF2FDE38B EQ PUSH2 0x469 JUMPI DUP1 PUSH4 0xFA1BBE78 EQ PUSH2 0x47C JUMPI PUSH1 0x0 DUP1 REVERT JUMPDEST DUP1 PUSH4 0x9FD6DB12 EQ PUSH2 0x3B0 JUMPI DUP1 PUSH4 0xA9059CBB EQ PUSH2 0x3BD JUMPI DUP1 PUSH4 0xC04A7D0D EQ PUSH2 0x3D0 JUMPI DUP1 PUSH4 0xD5ABEB01 EQ PUSH2 0x3FC JUMPI PUSH1 0x0 DUP1 REVERT JUMPDEST DUP1 PUSH4 0x88AB4168 GT PUSH2 0xDE JUMPI DUP1 PUSH4 0x88AB4168 EQ PUSH2 0x372 JUMPI DUP1 PUSH4 0x88D695B2 EQ PUSH2 0x37A JUMPI DUP1 PUSH4 0x8DA5CB5B EQ PUSH2 0x38D JUMPI DUP1 PUSH4 0x95D89B41 EQ PUSH2 0x3A8 JUMPI PUSH1 0x0 DUP1 REVERT JUMPDEST DUP1 PUSH4 0x77620C1C EQ PUSH2 0x316 JUMPI DUP1 PUSH4 0x79CC6790 EQ PUSH2 0x329 JUMPI DUP1 PUSH4 0x81CD08EE EQ PUSH2 0x33C JUMPI DUP1 PUSH4 0x87391133 EQ PUSH2 0x34F JUMPI PUSH1 0x0 DUP1 REVERT JUMPDEST DUP1 PUSH4 0x40C10F19 GT PUSH2 0x187 JUMPI DUP1 PUSH4 0x5C74E025 GT PUSH2 0x156 JUMPI DUP1 PUSH4 0x5C74E025 EQ PUSH2 0x2C5 JUMPI DUP1 PUSH4 0x6DDD474D EQ PUSH2 0x2D8 JUMPI DUP1 PUSH4 0x70A08231 EQ PUSH2 0x2FB JUMPI DUP1 PUSH4 0x715018A6 EQ PUSH2 0x30E JUMPI PUSH1 0x0 DUP1 REVERT JUMPDEST DUP1 PUSH4 0x40C10F19 EQ PUSH2 0x281 JUMPI DUP1 PUSH4 0x42966C68 EQ PUSH2 0x294 JUMPI DUP1 PUSH4 0x4EA3871A EQ PUSH2 0x2A7 JUMPI DUP1 PUSH4 0x55C7BA14 EQ PUSH2 0x2BA JUMPI PUSH1 0x0 DUP1 REVERT JUMPDEST DUP1 PUSH4 0x23B872DD GT PUSH2 0x1C3 JUMPI DUP1 PUSH4 0x23B872DD EQ PUSH2 0x241 JUMPI DUP1 PUSH4 0x2D380242 EQ PUSH2 0x254 JUMPI DUP1 PUSH4 0x313CE567 EQ PUSH2 0x25D JUMPI DUP1 PUSH4 0x37D19214 EQ PUSH2 0x26C JUMPI PUSH1 0x0 DUP1 REVERT JUMPDEST DUP1 PUSH4 0x6FDDE03 EQ PUSH2 0x1EA JUMPI DUP1 PUSH4 0x95EA7B3 EQ PUSH2 0x208 JUMPI DUP1 PUSH4 0x18160DDD EQ PUSH2 0x22B JUMPI JUMPDEST PUSH1 0x0 DUP1 REVERT JUMPDEST PUSH2 0x1F2 PUSH2 0x48F JUMP JUMPDEST PUSH1 0x40 MLOAD PUSH2 0x1FF SWAP2 SWAP1 PUSH2 0x13F5 JUMP JUMPDEST PUSH1 0x40 MLOAD DUP1 SWAP2 SUB SWAP1 RETURN JUMPDEST PUSH2 0x21B PUSH2 0x216 CALLDATASIZE PUSH1 0x4 PUSH2 0x145F JUMP JUMPDEST PUSH2 0x521 JUMP JUMPDEST PUSH1 0x40 MLOAD SWAP1 ISZERO ISZERO DUP2 MSTORE PUSH1 0x20 ADD PUSH2 0x1FF JUMP JUMPDEST PUSH2 0x233 PUSH2 0x53B JUMP JUMPDEST PUSH1 0x40 MLOAD SWAP1 DUP2 MSTORE PUSH1 0x20 ADD PUSH2 0x1FF JUMP JUMPDEST PUSH2 0x21B PUSH2 0x24F CALLDATASIZE PUSH1 0x4 PUSH2 0x1489 JUMP JUMPDEST PUSH2 0x54B JUMP JUMPDEST PUSH2 0x233 PUSH1 0x9 SLOAD DUP2 JUMP JUMPDEST PUSH1 0x40 MLOAD PUSH1 0x12 DUP2 MSTORE PUSH1 0x20 ADD PUSH2 0x1FF JUMP JUMPDEST PUSH2 0x27F PUSH2 0x27A CALLDATASIZE PUSH1 0x4 PUSH2 0x14C6 JUMP JUMPDEST PUSH2 0x56F JUMP JUMPDEST STOP JUMPDEST PUSH2 0x27F PUSH2 0x28F CALLDATASIZE PUSH1 0x4 PUSH2 0x145F JUMP JUMPDEST PUSH2 0x5C0 JUMP JUMPDEST PUSH2 0x27F PUSH2 0x2A2 CALLDATASIZE PUSH1 0x4 PUSH2 0x14E8 JUMP JUMPDEST PUSH2 0x779 JUMP JUMPDEST PUSH2 0x27F PUSH2 0x2B5 CALLDATASIZE PUSH1 0x4 PUSH2 0x1501 JUMP JUMPDEST PUSH2 0x822 JUMP JUMPDEST PUSH1 0x8 SLOAD PUSH1 0xFF AND PUSH2 0x21B JUMP JUMPDEST PUSH2 0x27F PUSH2 0x2D3 CALLDATASIZE PUSH1 0x4 PUSH2 0x14C6 JUMP JUMPDEST PUSH2 0x871 JUMP JUMPDEST PUSH2 0x21B PUSH2 0x2E6 CALLDATASIZE PUSH1 0x4 PUSH2 0x14C6 JUMP JUMPDEST PUSH1 0x6 PUSH1 0x20 MSTORE PUSH1 0x0 SWAP1 DUP2 MSTORE PUSH1 0x40 SWAP1 KECCAK256 SLOAD PUSH1 0xFF AND DUP2 JUMP JUMPDEST PUSH2 0x233 PUSH2 0x309 CALLDATASIZE PUSH1 0x4 PUSH2 0x14C6 JUMP JUMPDEST PUSH2 0x8C2 JUMP JUMPDEST PUSH2 0x27F PUSH2 0x8E0 JUMP JUMPDEST PUSH2 0x27F PUSH2 0x324 CALLDATASIZE PUSH1 0x4 PUSH2 0x14C6 JUMP JUMPDEST PUSH2 0x8F4 JUMP JUMPDEST PUSH2 0x27F PUSH2 0x337 CALLDATASIZE PUSH1 0x4 PUSH2 0x145F JUMP JUMPDEST PUSH2 0x9A9 JUMP JUMPDEST PUSH2 0x27F PUSH2 0x34A CALLDATASIZE PUSH1 0x4 PUSH2 0x14C6 JUMP JUMPDEST PUSH2 0xAAB JUMP JUMPDEST PUSH2 0x21B PUSH2 0x35D CALLDATASIZE PUSH1 0x4 PUSH2 0x14C6 JUMP JUMPDEST PUSH1 0x7 PUSH1 0x20 MSTORE PUSH1 0x0 SWAP1 DUP2 MSTORE PUSH1 0x40 SWAP1 KECCAK256 SLOAD PUSH1 0xFF AND DUP2 JUMP JUMPDEST PUSH1 0x9 SLOAD PUSH2 0x233 JUMP JUMPDEST PUSH2 0x27F PUSH2 0x388 CALLDATASIZE PUSH1 0x4 PUSH2 0x156F JUMP JUMPDEST PUSH2 0xB61 JUMP JUMPDEST PUSH1 0x5 SLOAD PUSH1 0x40 MLOAD PUSH1 0x1 PUSH1 0x1 PUSH1 0xA0 SHL SUB SWAP1 SWAP2 AND DUP2 MSTORE PUSH1 0x20 ADD PUSH2 0x1FF JUMP JUMPDEST PUSH2 0x1F2 PUSH2 0xE28 JUMP JUMPDEST PUSH1 0x8 SLOAD PUSH2 0x21B SWAP1 PUSH1 0xFF AND DUP2 JUMP JUMPDEST PUSH2 0x21B PUSH2 0x3CB CALLDATASIZE PUSH1 0x4 PUSH2 0x145F JUMP JUMPDEST PUSH2 0xE37 JUMP JUMPDEST PUSH2 0x21B PUSH2 0x3DE CALLDATASIZE PUSH1 0x4 PUSH2 0x14C6 JUMP JUMPDEST PUSH1 0x1 PUSH1 0x1 PUSH1 0xA0 SHL SUB AND PUSH1 0x0 SWAP1 DUP2 MSTORE PUSH1 0x6 PUSH1 0x20 MSTORE PUSH1 0x40 SWAP1 KECCAK256 SLOAD PUSH1 0xFF AND SWAP1 JUMP JUMPDEST PUSH2 0x233 PUSH2 0xE45 JUMP JUMPDEST PUSH2 0x233 PUSH2 0x412 CALLDATASIZE PUSH1 0x4 PUSH2 0x15E0 JUMP JUMPDEST PUSH1 0x1 PUSH1 0x1 PUSH1 0xA0 SHL SUB SWAP2 DUP3 AND PUSH1 0x0 SWAP1 DUP2 MSTORE PUSH1 0x1 PUSH1 0x20 SWAP1 DUP2 MSTORE PUSH1 0x40 DUP1 DUP4 KECCAK256 SWAP4 SWAP1 SWAP5 AND DUP3 MSTORE SWAP2 SWAP1 SWAP2 MSTORE KECCAK256 SLOAD SWAP1 JUMP JUMPDEST PUSH2 0x21B PUSH2 0x44B CALLDATASIZE PUSH1 0x4 PUSH2 0x14C6 JUMP JUMPDEST PUSH1 0x1 PUSH1 0x1 PUSH1 0xA0 SHL SUB AND PUSH1 0x0 SWAP1 DUP2 MSTORE PUSH1 0x7 PUSH1 0x20 MSTORE PUSH1 0x40 SWAP1 KECCAK256 SLOAD PUSH1 0xFF AND SWAP1 JUMP JUMPDEST PUSH2 0x27F PUSH2 0x477 CALLDATASIZE PUSH1 0x4 PUSH2 0x14C6 JUMP JUMPDEST PUSH2 0xE61 JUMP JUMPDEST PUSH2 0x27F PUSH2 0x48A CALLDATASIZE PUSH1 0x4 PUSH2 0x145F JUMP JUMPDEST PUSH2 0xE9F JUMP JUMPDEST PUSH1 0x60 PUSH1 0x3 DUP1 SLOAD PUSH2 0x49E SWAP1 PUSH2 0x1613 JUMP JUMPDEST DUP1 PUSH1 0x1F ADD PUSH1 0x20 DUP1 SWAP2 DIV MUL PUSH1 0x20 ADD PUSH1 0x40 MLOAD SWAP1 DUP2 ADD PUSH1 0x40 MSTORE DUP1 SWAP3 SWAP2 SWAP1 DUP2 DUP2 MSTORE PUSH1 0x20 ADD DUP3 DUP1 SLOAD PUSH2 0x4CA SWAP1 PUSH2 0x1613 JUMP JUMPDEST DUP1 ISZERO PUSH2 0x517 JUMPI DUP1 PUSH1 0x1F LT PUSH2 0x4EC JUMPI PUSH2 0x100 DUP1 DUP4 SLOAD DIV MUL DUP4 MSTORE SWAP2 PUSH1 0x20 ADD SWAP2 PUSH2 0x517 JUMP JUMPDEST DUP3 ADD SWAP2 SWAP1 PUSH1 0x0 MSTORE PUSH1 0x20 PUSH1 0x0 KECCAK256 SWAP1 JUMPDEST DUP2 SLOAD DUP2 MSTORE SWAP1 PUSH1 0x1 ADD SWAP1 PUSH1 0x20 ADD DUP1 DUP4 GT PUSH2 0x4FA JUMPI DUP3 SWAP1 SUB PUSH1 0x1F AND DUP3 ADD SWAP2 JUMPDEST POP POP POP POP POP SWAP1 POP SWAP1 JUMP JUMPDEST PUSH1 0x0 CALLER PUSH2 0x52F DUP2 DUP6 DUP6 PUSH2 0x1017 JUMP JUMPDEST PUSH1 0x1 SWAP2 POP POP JUMPDEST SWAP3 SWAP2 POP POP JUMP JUMPDEST PUSH1 0x0 PUSH2 0x546 PUSH1 0x2 SLOAD SWAP1 JUMP JUMPDEST SWAP1 POP SWAP1 JUMP JUMPDEST PUSH1 0x0 CALLER PUSH2 0x559 DUP6 DUP3 DUP6 PUSH2 0x1029 JUMP JUMPDEST PUSH2 0x564 DUP6 DUP6 DUP6 PUSH2 0x10A8 JUMP JUMPDEST POP PUSH1 0x1 SWAP5 SWAP4 POP POP POP POP JUMP JUMPDEST PUSH2 0x577 PUSH2 0x1107 JUMP JUMPDEST PUSH1 0x1 PUSH1 0x1 PUSH1 0xA0 SHL SUB DUP2 AND PUSH1 0x0 DUP2 DUP2 MSTORE PUSH1 0x7 PUSH1 0x20 MSTORE PUSH1 0x40 DUP1 DUP3 KECCAK256 DUP1 SLOAD PUSH1 0xFF NOT AND SWAP1 SSTORE MLOAD PUSH32 0x6DE82F827471160AF273CCDC03CE8BE3A40F2F9FE7FA4110CD02799717BB3D91 SWAP2 SWAP1 LOG2 POP JUMP JUMPDEST PUSH2 0x5C8 PUSH2 0x1107 JUMP JUMPDEST PUSH1 0x8 SLOAD PUSH1 0xFF AND PUSH2 0x61F JUMPI PUSH1 0x40 MLOAD PUSH3 0x461BCD PUSH1 0xE5 SHL DUP2 MSTORE PUSH1 0x20 PUSH1 0x4 DUP3 ADD MSTORE PUSH1 0x1E PUSH1 0x24 DUP3 ADD MSTORE PUSH32 0x546F7265546F6B656E3A204D696E74696E672069732064697361626C65640000 PUSH1 0x44 DUP3 ADD MSTORE PUSH1 0x64 ADD JUMPDEST PUSH1 0x40 MLOAD DUP1 SWAP2 SUB SWAP1 REVERT JUMPDEST PUSH1 0x1 PUSH1 0x1 PUSH1 0xA0 SHL SUB DUP3 AND PUSH2 0x675 JUMPI PUSH1 0x40 MLOAD PUSH3 0x461BCD PUSH1 0xE5 SHL DUP2 MSTORE PUSH1 0x20 PUSH1 0x4 DUP3 ADD MSTORE PUSH1 0x1A PUSH1 0x24 DUP3 ADD MSTORE PUSH32 0x546F7265546F6B656E3A20496E76616C69642061646472657373000000000000 PUSH1 0x44 DUP3 ADD MSTORE PUSH1 0x64 ADD PUSH2 0x616 JUMP JUMPDEST PUSH1 0x0 DUP2 GT PUSH2 0x695 JUMPI PUSH1 0x40 MLOAD PUSH3 0x461BCD PUSH1 0xE5 SHL DUP2 MSTORE PUSH1 0x4 ADD PUSH2 0x616 SWAP1 PUSH2 0x164D JUMP JUMPDEST PUSH2 0x6A1 PUSH1 0x12 PUSH1 0xA PUSH2 0x1792 JUMP JUMPDEST PUSH2 0x6AF SWAP1 PUSH4 0x3B9ACA00 PUSH2 0x17A1 JUMP JUMPDEST DUP2 PUSH1 0x9 SLOAD PUSH2 0x6BD SWAP2 SWAP1 PUSH2 0x17B8 JUMP JUMPDEST GT ISZERO PUSH2 0x715 JUMPI PUSH1 0x40 MLOAD PUSH3 0x461BCD PUSH1 0xE5 SHL DUP2 MSTORE PUSH1 0x20 PUSH1 0x4 DUP3 ADD MSTORE PUSH1 0x21 PUSH1 0x24 DUP3 ADD MSTORE PUSH32 0x546F7265546F6B656E3A2045786365656473206D6178696D756D20737570706C PUSH1 0x44 DUP3 ADD MSTORE PUSH1 0x79 PUSH1 0xF8 SHL PUSH1 0x64 DUP3 ADD MSTORE PUSH1 0x84 ADD PUSH2 0x616 JUMP JUMPDEST PUSH2 0x71F DUP3 DUP3 PUSH2 0x1134 JUMP JUMPDEST DUP1 PUSH1 0x9 PUSH1 0x0 DUP3 DUP3 SLOAD PUSH2 0x731 SWAP2 SWAP1 PUSH2 0x17B8 JUMP JUMPDEST SWAP1 SWAP2 SSTORE POP POP PUSH1 0x40 MLOAD DUP2 DUP2 MSTORE PUSH1 0x1 PUSH1 0x1 PUSH1 0xA0 SHL SUB DUP4 AND SWAP1 PUSH32 0x3F2C9D57C068687834F0DE942A9BABB9E5ACAB57D516D3480A3C16EE165A4273 SWAP1 PUSH1 0x20 ADD JUMPDEST PUSH1 0x40 MLOAD DUP1 SWAP2 SUB SWAP1 LOG2 POP POP JUMP JUMPDEST PUSH2 0x781 PUSH2 0x1107 JUMP JUMPDEST PUSH1 0x0 DUP2 GT PUSH2 0x7A1 JUMPI PUSH1 0x40 MLOAD PUSH3 0x461BCD PUSH1 0xE5 SHL DUP2 MSTORE PUSH1 0x4 ADD PUSH2 0x616 SWAP1 PUSH2 0x164D JUMP JUMPDEST DUP1 PUSH2 0x7AB CALLER PUSH2 0x8C2 JUMP JUMPDEST LT ISZERO PUSH2 0x7C9 JUMPI PUSH1 0x40 MLOAD PUSH3 0x461BCD PUSH1 0xE5 SHL DUP2 MSTORE PUSH1 0x4 ADD PUSH2 0x616 SWAP1 PUSH2 0x17CB JUMP JUMPDEST PUSH2 0x7D3 CALLER DUP3 PUSH2 0x116E JUMP JUMPDEST DUP1 PUSH1 0x9 PUSH1 0x0 DUP3 DUP3 SLOAD PUSH2 0x7E5 SWAP2 SWAP1 PUSH2 0x1802 JUMP JUMPDEST SWAP1 SWAP2 SSTORE POP POP PUSH1 0x40 MLOAD DUP2 DUP2 MSTORE CALLER SWAP1 PUSH32 0xFD38818F5291BF0BB3A2A48AADC06BA8757865D1DABD804585338AAB3009DCB6 SWAP1 PUSH1 0x20 ADD PUSH1 0x40 MLOAD DUP1 SWAP2 SUB SWAP1 LOG2 POP JUMP JUMPDEST PUSH2 0x82A PUSH2 0x1107 JUMP JUMPDEST PUSH1 0x8 DUP1 SLOAD PUSH1 0xFF NOT AND DUP3 ISZERO ISZERO SWAP1 DUP2 OR SWAP1 SWAP2 SSTORE PUSH1 0x40 MLOAD SWAP1 DUP2 MSTORE PUSH32 0xB6C727D83BACE6EEF762275CC927295DCD906C8041F03F05CF07685323BFB6DA SWAP1 PUSH1 0x20 ADD PUSH1 0x40 MLOAD DUP1 SWAP2 SUB SWAP1 LOG1 POP JUMP JUMPDEST PUSH2 0x879 PUSH2 0x1107 JUMP JUMPDEST PUSH1 0x1 PUSH1 0x1 PUSH1 0xA0 SHL SUB DUP2 AND PUSH1 0x0 DUP2 DUP2 MSTORE PUSH1 0x6 PUSH1 0x20 MSTORE PUSH1 0x40 DUP1 DUP3 KECCAK256 DUP1 SLOAD PUSH1 0xFF NOT AND SWAP1 SSTORE MLOAD PUSH32 0x2787914E393EAE017C5D63972AE40B8A6E095F82F7C2DF7B8CC0947364F44C3B SWAP2 SWAP1 LOG2 POP JUMP JUMPDEST PUSH1 0x1 PUSH1 0x1 PUSH1 0xA0 SHL SUB DUP2 AND PUSH1 0x0 SWAP1 DUP2 MSTORE PUSH1 0x20 DUP2 SWAP1 MSTORE PUSH1 0x40 DUP2 KECCAK256 SLOAD PUSH2 0x535 JUMP JUMPDEST PUSH2 0x8E8 PUSH2 0x1107 JUMP JUMPDEST PUSH2 0x8F2 PUSH1 0x0 PUSH2 0x11A4 JUMP JUMPDEST JUMP JUMPDEST PUSH2 0x8FC PUSH2 0x1107 JUMP JUMPDEST PUSH1 0x1 PUSH1 0x1 PUSH1 0xA0 SHL SUB DUP2 AND PUSH2 0x95D JUMPI PUSH1 0x40 MLOAD PUSH3 0x461BCD PUSH1 0xE5 SHL DUP2 MSTORE PUSH1 0x20 PUSH1 0x4 DUP3 ADD MSTORE PUSH1 0x22 PUSH1 0x24 DUP3 ADD MSTORE PUSH32 0x546F7265546F6B656E3A20496E76616C6964206D616E61676572206164647265 PUSH1 0x44 DUP3 ADD MSTORE PUSH2 0x7373 PUSH1 0xF0 SHL PUSH1 0x64 DUP3 ADD MSTORE PUSH1 0x84 ADD PUSH2 0x616 JUMP JUMPDEST PUSH1 0x1 PUSH1 0x1 PUSH1 0xA0 SHL SUB DUP2 AND PUSH1 0x0 DUP2 DUP2 MSTORE PUSH1 0x7 PUSH1 0x20 MSTORE PUSH1 0x40 DUP1 DUP3 KECCAK256 DUP1 SLOAD PUSH1 0xFF NOT AND PUSH1 0x1 OR SWAP1 SSTORE MLOAD PUSH32 0xA0334D5E7F40DC27AD1F00EEA8F14A0AA36B54C3D390F2D074E877FD1D0C64FE SWAP2 SWAP1 LOG2 POP JUMP JUMPDEST PUSH2 0x9B1 PUSH2 0x1107 JUMP JUMPDEST PUSH1 0x1 PUSH1 0x1 PUSH1 0xA0 SHL SUB DUP3 AND PUSH2 0xA07 JUMPI PUSH1 0x40 MLOAD PUSH3 0x461BCD PUSH1 0xE5 SHL DUP2 MSTORE PUSH1 0x20 PUSH1 0x4 DUP3 ADD MSTORE PUSH1 0x1A PUSH1 0x24 DUP3 ADD MSTORE PUSH32 0x546F7265546F6B656E3A20496E76616C69642061646472657373000000000000 PUSH1 0x44 DUP3 ADD MSTORE PUSH1 0x64 ADD PUSH2 0x616 JUMP JUMPDEST PUSH1 0x0 DUP2 GT PUSH2 0xA27 JUMPI PUSH1 0x40 MLOAD PUSH3 0x461BCD PUSH1 0xE5 SHL DUP2 MSTORE PUSH1 0x4 ADD PUSH2 0x616 SWAP1 PUSH2 0x164D JUMP JUMPDEST DUP1 PUSH2 0xA31 DUP4 PUSH2 0x8C2 JUMP JUMPDEST LT ISZERO PUSH2 0xA4F JUMPI PUSH1 0x40 MLOAD PUSH3 0x461BCD PUSH1 0xE5 SHL DUP2 MSTORE PUSH1 0x4 ADD PUSH2 0x616 SWAP1 PUSH2 0x17CB JUMP JUMPDEST PUSH2 0xA59 DUP3 DUP3 PUSH2 0x116E JUMP JUMPDEST DUP1 PUSH1 0x9 PUSH1 0x0 DUP3 DUP3 SLOAD PUSH2 0xA6B SWAP2 SWAP1 PUSH2 0x1802 JUMP JUMPDEST SWAP1 SWAP2 SSTORE POP POP PUSH1 0x40 MLOAD DUP2 DUP2 MSTORE PUSH1 0x1 PUSH1 0x1 PUSH1 0xA0 SHL SUB DUP4 AND SWAP1 PUSH32 0xFD38818F5291BF0BB3A2A48AADC06BA8757865D1DABD804585338AAB3009DCB6 SWAP1 PUSH1 0x20 ADD PUSH2 0x76D JUMP JUMPDEST PUSH2 0xAB3 PUSH2 0x1107 JUMP JUMPDEST PUSH1 0x1 PUSH1 0x1 PUSH1 0xA0 SHL SUB DUP2 AND PUSH2 0xB15 JUMPI PUSH1 0x40 MLOAD PUSH3 0x461BCD PUSH1 0xE5 SHL DUP2 MSTORE PUSH1 0x20 PUSH1 0x4 DUP3 ADD MSTORE PUSH1 0x23 PUSH1 0x24 DUP3 ADD MSTORE PUSH32 0x546F7265546F6B656E3A20496E76616C696420636F6E74726163742061646472 PUSH1 0x44 DUP3 ADD MSTORE PUSH3 0x657373 PUSH1 0xE8 SHL PUSH1 0x64 DUP3 ADD MSTORE PUSH1 0x84 ADD PUSH2 0x616 JUMP JUMPDEST PUSH1 0x1 PUSH1 0x1 PUSH1 0xA0 SHL SUB DUP2 AND PUSH1 0x0 DUP2 DUP2 MSTORE PUSH1 0x6 PUSH1 0x20 MSTORE PUSH1 0x40 DUP1 DUP3 KECCAK256 DUP1 SLOAD PUSH1 0xFF NOT AND PUSH1 0x1 OR SWAP1 SSTORE MLOAD PUSH32 0x6C714AB98F337E5BA3203DCE1DD577E948F63B10C5300A075C35C4DF3A270067 SWAP2 SWAP1 LOG2 POP JUMP JUMPDEST CALLER PUSH1 0x0 SWAP1 DUP2 MSTORE PUSH1 0x6 PUSH1 0x20 MSTORE PUSH1 0x40 SWAP1 KECCAK256 SLOAD PUSH1 0xFF AND DUP1 PUSH2 0xB8E JUMPI POP CALLER PUSH1 0x0 SWAP1 DUP2 MSTORE PUSH1 0x7 PUSH1 0x20 MSTORE PUSH1 0x40 SWAP1 KECCAK256 SLOAD PUSH1 0xFF AND JUMPDEST DUP1 PUSH2 0xBA3 JUMPI POP PUSH1 0x5 SLOAD PUSH1 0x1 PUSH1 0x1 PUSH1 0xA0 SHL SUB AND CALLER EQ JUMPDEST PUSH2 0xBBF JUMPI PUSH1 0x40 MLOAD PUSH3 0x461BCD PUSH1 0xE5 SHL DUP2 MSTORE PUSH1 0x4 ADD PUSH2 0x616 SWAP1 PUSH2 0x1815 JUMP JUMPDEST DUP3 DUP2 EQ PUSH2 0xC18 JUMPI PUSH1 0x40 MLOAD PUSH3 0x461BCD PUSH1 0xE5 SHL DUP2 MSTORE PUSH1 0x20 PUSH1 0x4 DUP3 ADD MSTORE PUSH1 0x21 PUSH1 0x24 DUP3 ADD MSTORE PUSH32 0x546F7265546F6B656E3A20417272617973206C656E677468206D69736D617463 PUSH1 0x44 DUP3 ADD MSTORE PUSH1 0xD PUSH1 0xFB SHL PUSH1 0x64 DUP3 ADD MSTORE PUSH1 0x84 ADD PUSH2 0x616 JUMP JUMPDEST DUP3 PUSH2 0xC65 JUMPI PUSH1 0x40 MLOAD PUSH3 0x461BCD PUSH1 0xE5 SHL DUP2 MSTORE PUSH1 0x20 PUSH1 0x4 DUP3 ADD MSTORE PUSH1 0x17 PUSH1 0x24 DUP3 ADD MSTORE PUSH32 0x546F7265546F6B656E3A20456D70747920617272617973000000000000000000 PUSH1 0x44 DUP3 ADD MSTORE PUSH1 0x64 ADD PUSH2 0x616 JUMP JUMPDEST PUSH1 0x0 DUP1 JUMPDEST DUP3 DUP2 LT ISZERO PUSH2 0xC9F JUMPI DUP4 DUP4 DUP3 DUP2 DUP2 LT PUSH2 0xC83 JUMPI PUSH2 0xC83 PUSH2 0x186A JUMP JUMPDEST SWAP1 POP PUSH1 0x20 MUL ADD CALLDATALOAD DUP3 PUSH2 0xC95 SWAP2 SWAP1 PUSH2 0x17B8 JUMP JUMPDEST SWAP2 POP PUSH1 0x1 ADD PUSH2 0xC69 JUMP JUMPDEST POP DUP1 PUSH2 0xCAA CALLER PUSH2 0x8C2 JUMP JUMPDEST LT ISZERO PUSH2 0xCC8 JUMPI PUSH1 0x40 MLOAD PUSH3 0x461BCD PUSH1 0xE5 SHL DUP2 MSTORE PUSH1 0x4 ADD PUSH2 0x616 SWAP1 PUSH2 0x17CB JUMP JUMPDEST PUSH1 0x0 JUMPDEST DUP5 DUP2 LT ISZERO PUSH2 0xDE7 JUMPI PUSH1 0x0 DUP7 DUP7 DUP4 DUP2 DUP2 LT PUSH2 0xCE7 JUMPI PUSH2 0xCE7 PUSH2 0x186A JUMP JUMPDEST SWAP1 POP PUSH1 0x20 MUL ADD PUSH1 0x20 DUP2 ADD SWAP1 PUSH2 0xCFC SWAP2 SWAP1 PUSH2 0x14C6 JUMP JUMPDEST PUSH1 0x1 PUSH1 0x1 PUSH1 0xA0 SHL SUB AND SUB PUSH2 0xD5E JUMPI PUSH1 0x40 MLOAD PUSH3 0x461BCD PUSH1 0xE5 SHL DUP2 MSTORE PUSH1 0x20 PUSH1 0x4 DUP3 ADD MSTORE PUSH1 0x24 DUP1 DUP3 ADD MSTORE PUSH32 0x546F7265546F6B656E3A20496E76616C696420726563697069656E7420616464 PUSH1 0x44 DUP3 ADD MSTORE PUSH4 0x72657373 PUSH1 0xE0 SHL PUSH1 0x64 DUP3 ADD MSTORE PUSH1 0x84 ADD PUSH2 0x616 JUMP JUMPDEST PUSH1 0x0 DUP5 DUP5 DUP4 DUP2 DUP2 LT PUSH2 0xD72 JUMPI PUSH2 0xD72 PUSH2 0x186A JUMP JUMPDEST SWAP1 POP PUSH1 0x20 MUL ADD CALLDATALOAD GT PUSH2 0xD96 JUMPI PUSH1 0x40 MLOAD PUSH3 0x461BCD PUSH1 0xE5 SHL DUP2 MSTORE PUSH1 0x4 ADD PUSH2 0x616 SWAP1 PUSH2 0x164D JUMP JUMPDEST PUSH2 0xDDF CALLER DUP8 DUP8 DUP5 DUP2 DUP2 LT PUSH2 0xDAC JUMPI PUSH2 0xDAC PUSH2 0x186A JUMP JUMPDEST SWAP1 POP PUSH1 0x20 MUL ADD PUSH1 0x20 DUP2 ADD SWAP1 PUSH2 0xDC1 SWAP2 SWAP1 PUSH2 0x14C6 JUMP JUMPDEST DUP7 DUP7 DUP6 DUP2 DUP2 LT PUSH2 0xDD3 JUMPI PUSH2 0xDD3 PUSH2 0x186A JUMP JUMPDEST SWAP1 POP PUSH1 0x20 MUL ADD CALLDATALOAD PUSH2 0x10A8 JUMP JUMPDEST PUSH1 0x1 ADD PUSH2 0xCCB JUMP JUMPDEST POP PUSH1 0x40 DUP1 MLOAD DUP3 DUP2 MSTORE PUSH1 0x20 DUP2 ADD DUP7 SWAP1 MSTORE PUSH32 0x7B4FB3FFA747D03664DCD3BB02933BB6AB3F5799103A30A80659A5C1AA7ECC86 SWAP2 ADD PUSH1 0x40 MLOAD DUP1 SWAP2 SUB SWAP1 LOG1 POP POP POP POP POP JUMP JUMPDEST PUSH1 0x60 PUSH1 0x4 DUP1 SLOAD PUSH2 0x49E SWAP1 PUSH2 0x1613 JUMP JUMPDEST PUSH1 0x0 CALLER PUSH2 0x52F DUP2 DUP6 DUP6 PUSH2 0x10A8 JUMP JUMPDEST PUSH1 0x0 PUSH2 0xE53 PUSH1 0x12 PUSH1 0xA PUSH2 0x1792 JUMP JUMPDEST PUSH2 0x546 SWAP1 PUSH4 0x3B9ACA00 PUSH2 0x17A1 JUMP JUMPDEST PUSH2 0xE69 PUSH2 0x1107 JUMP JUMPDEST PUSH1 0x1 PUSH1 0x1 PUSH1 0xA0 SHL SUB DUP2 AND PUSH2 0xE93 JUMPI PUSH1 0x40 MLOAD PUSH4 0x1E4FBDF7 PUSH1 0xE0 SHL DUP2 MSTORE PUSH1 0x0 PUSH1 0x4 DUP3 ADD MSTORE PUSH1 0x24 ADD PUSH2 0x616 JUMP JUMPDEST PUSH2 0xE9C DUP2 PUSH2 0x11A4 JUMP JUMPDEST POP JUMP JUMPDEST CALLER PUSH1 0x0 SWAP1 DUP2 MSTORE PUSH1 0x6 PUSH1 0x20 MSTORE PUSH1 0x40 SWAP1 KECCAK256 SLOAD PUSH1 0xFF AND DUP1 PUSH2 0xECC JUMPI POP CALLER PUSH1 0x0 SWAP1 DUP2 MSTORE PUSH1 0x7 PUSH1 0x20 MSTORE PUSH1 0x40 SWAP1 KECCAK256 SLOAD PUSH1 0xFF AND JUMPDEST DUP1 PUSH2 0xEE1 JUMPI POP PUSH1 0x5 SLOAD PUSH1 0x1 PUSH1 0x1 PUSH1 0xA0 SHL SUB AND CALLER EQ JUMPDEST PUSH2 0xEFD JUMPI PUSH1 0x40 MLOAD PUSH3 0x461BCD PUSH1 0xE5 SHL DUP2 MSTORE PUSH1 0x4 ADD PUSH2 0x616 SWAP1 PUSH2 0x1815 JUMP JUMPDEST PUSH1 0x1 PUSH1 0x1 PUSH1 0xA0 SHL SUB DUP3 AND PUSH2 0xF5D JUMPI PUSH1 0x40 MLOAD PUSH3 0x461BCD PUSH1 0xE5 SHL DUP2 MSTORE PUSH1 0x20 PUSH1 0x4 DUP3 ADD MSTORE PUSH1 0x21 PUSH1 0x24 DUP3 ADD MSTORE PUSH32 0x546F7265546F6B656E3A20496E76616C696420706C6179657220616464726573 PUSH1 0x44 DUP3 ADD MSTORE PUSH1 0x73 PUSH1 0xF8 SHL PUSH1 0x64 DUP3 ADD MSTORE PUSH1 0x84 ADD PUSH2 0x616 JUMP JUMPDEST PUSH1 0x0 DUP2 GT PUSH2 0xF7D JUMPI PUSH1 0x40 MLOAD PUSH3 0x461BCD PUSH1 0xE5 SHL DUP2 MSTORE PUSH1 0x4 ADD PUSH2 0x616 SWAP1 PUSH2 0x164D JUMP JUMPDEST PUSH2 0xF87 DUP3 DUP3 PUSH2 0x1134 JUMP JUMPDEST DUP1 PUSH1 0x9 PUSH1 0x0 DUP3 DUP3 SLOAD PUSH2 0xF99 SWAP2 SWAP1 PUSH2 0x17B8 JUMP JUMPDEST SWAP1 SWAP2 SSTORE POP POP PUSH1 0x40 MLOAD DUP2 DUP2 MSTORE PUSH1 0x1 PUSH1 0x1 PUSH1 0xA0 SHL SUB DUP4 AND SWAP1 PUSH32 0x824C2A2A49E9CFAA3B02241C2DC5368E338376D92A398DDFB7D15A56EB7C0D61 SWAP1 PUSH1 0x20 ADD PUSH1 0x40 MLOAD DUP1 SWAP2 SUB SWAP1 LOG2 DUP2 PUSH1 0x1 PUSH1 0x1 PUSH1 0xA0 SHL SUB AND PUSH32 0x3F2C9D57C068687834F0DE942A9BABB9E5ACAB57D516D3480A3C16EE165A4273 DUP3 PUSH1 0x40 MLOAD PUSH2 0x76D SWAP2 DUP2 MSTORE PUSH1 0x20 ADD SWAP1 JUMP JUMPDEST PUSH2 0x1024 DUP4 DUP4 DUP4 PUSH1 0x1 PUSH2 0x11F6 JUMP JUMPDEST POP POP POP JUMP JUMPDEST PUSH1 0x1 PUSH1 0x1 PUSH1 0xA0 SHL SUB DUP4 DUP2 AND PUSH1 0x0 SWAP1 DUP2 MSTORE PUSH1 0x1 PUSH1 0x20 SWAP1 DUP2 MSTORE PUSH1 0x40 DUP1 DUP4 KECCAK256 SWAP4 DUP7 AND DUP4 MSTORE SWAP3 SWAP1 MSTORE KECCAK256 SLOAD PUSH1 0x0 NOT DUP2 LT ISZERO PUSH2 0x10A2 JUMPI DUP2 DUP2 LT ISZERO PUSH2 0x1093 JUMPI PUSH1 0x40 MLOAD PUSH4 0x7DC7A0D9 PUSH1 0xE1 SHL DUP2 MSTORE PUSH1 0x1 PUSH1 0x1 PUSH1 0xA0 SHL SUB DUP5 AND PUSH1 0x4 DUP3 ADD MSTORE PUSH1 0x24 DUP2 ADD DUP3 SWAP1 MSTORE PUSH1 0x44 DUP2 ADD DUP4 SWAP1 MSTORE PUSH1 0x64 ADD PUSH2 0x616 JUMP JUMPDEST PUSH2 0x10A2 DUP5 DUP5 DUP5 DUP5 SUB PUSH1 0x0 PUSH2 0x11F6 JUMP JUMPDEST POP POP POP POP JUMP JUMPDEST PUSH1 0x1 PUSH1 0x1 PUSH1 0xA0 SHL SUB DUP4 AND PUSH2 0x10D2 JUMPI PUSH1 0x40 MLOAD PUSH4 0x4B637E8F PUSH1 0xE1 SHL DUP2 MSTORE PUSH1 0x0 PUSH1 0x4 DUP3 ADD MSTORE PUSH1 0x24 ADD PUSH2 0x616 JUMP JUMPDEST PUSH1 0x1 PUSH1 0x1 PUSH1 0xA0 SHL SUB DUP3 AND PUSH2 0x10FC JUMPI PUSH1 0x40 MLOAD PUSH4 0xEC442F05 PUSH1 0xE0 SHL DUP2 MSTORE PUSH1 0x0 PUSH1 0x4 DUP3 ADD MSTORE PUSH1 0x24 ADD PUSH2 0x616 JUMP JUMPDEST PUSH2 0x1024 DUP4 DUP4 DUP4 PUSH2 0x12CB JUMP JUMPDEST PUSH1 0x5 SLOAD PUSH1 0x1 PUSH1 0x1 PUSH1 0xA0 SHL SUB AND CALLER EQ PUSH2 0x8F2 JUMPI PUSH1 0x40 MLOAD PUSH4 0x118CDAA7 PUSH1 0xE0 SHL DUP2 MSTORE CALLER PUSH1 0x4 DUP3 ADD MSTORE PUSH1 0x24 ADD PUSH2 0x616 JUMP JUMPDEST PUSH1 0x1 PUSH1 0x1 PUSH1 0xA0 SHL SUB DUP3 AND PUSH2 0x115E JUMPI PUSH1 0x40 MLOAD PUSH4 0xEC442F05 PUSH1 0xE0 SHL DUP2 MSTORE PUSH1 0x0 PUSH1 0x4 DUP3 ADD MSTORE PUSH1 0x24 ADD PUSH2 0x616 JUMP JUMPDEST PUSH2 0x116A PUSH1 0x0 DUP4 DUP4 PUSH2 0x12CB JUMP JUMPDEST POP POP JUMP JUMPDEST PUSH1 0x1 PUSH1 0x1 PUSH1 0xA0 SHL SUB DUP3 AND PUSH2 0x1198 JUMPI PUSH1 0x40 MLOAD PUSH4 0x4B637E8F PUSH1 0xE1 SHL DUP2 MSTORE PUSH1 0x0 PUSH1 0x4 DUP3 ADD MSTORE PUSH1 0x24 ADD PUSH2 0x616 JUMP JUMPDEST PUSH2 0x116A DUP3 PUSH1 0x0 DUP4 PUSH2 0x12CB JUMP JUMPDEST PUSH1 0x5 DUP1 SLOAD PUSH1 0x1 PUSH1 0x1 PUSH1 0xA0 SHL SUB DUP4 DUP2 AND PUSH1 0x1 PUSH1 0x1 PUSH1 0xA0 SHL SUB NOT DUP4 AND DUP2 OR SWAP1 SWAP4 SSTORE PUSH1 0x40 MLOAD SWAP2 AND SWAP2 SWAP1 DUP3 SWAP1 PUSH32 0x8BE0079C531659141344CD1FD0A4F28419497F9722A3DAAFE3B4186F6B6457E0 SWAP1 PUSH1 0x0 SWAP1 LOG3 POP POP JUMP JUMPDEST PUSH1 0x1 PUSH1 0x1 PUSH1 0xA0 SHL SUB DUP5 AND PUSH2 0x1220 JUMPI PUSH1 0x40 MLOAD PUSH4 0xE602DF05 PUSH1 0xE0 SHL DUP2 MSTORE PUSH1 0x0 PUSH1 0x4 DUP3 ADD MSTORE PUSH1 0x24 ADD PUSH2 0x616 JUMP JUMPDEST PUSH1 0x1 PUSH1 0x1 PUSH1 0xA0 SHL SUB DUP4 AND PUSH2 0x124A JUMPI PUSH1 0x40 MLOAD PUSH4 0x4A1406B1 PUSH1 0xE1 SHL DUP2 MSTORE PUSH1 0x0 PUSH1 0x4 DUP3 ADD MSTORE PUSH1 0x24 ADD PUSH2 0x616 JUMP JUMPDEST PUSH1 0x1 PUSH1 0x1 PUSH1 0xA0 SHL SUB DUP1 DUP6 AND PUSH1 0x0 SWAP1 DUP2 MSTORE PUSH1 0x1 PUSH1 0x20 SWAP1 DUP2 MSTORE PUSH1 0x40 DUP1 DUP4 KECCAK256 SWAP4 DUP8 AND DUP4 MSTORE SWAP3 SWAP1 MSTORE KECCAK256 DUP3 SWAP1 SSTORE DUP1 ISZERO PUSH2 0x10A2 JUMPI DUP3 PUSH1 0x1 PUSH1 0x1 PUSH1 0xA0 SHL SUB AND DUP5 PUSH1 0x1 PUSH1 0x1 PUSH1 0xA0 SHL SUB AND PUSH32 0x8C5BE1E5EBEC7D5BD14F71427D1E84F3DD0314C0F7B2291E5B200AC8C7C3B925 DUP5 PUSH1 0x40 MLOAD PUSH2 0x12BD SWAP2 DUP2 MSTORE PUSH1 0x20 ADD SWAP1 JUMP JUMPDEST PUSH1 0x40 MLOAD DUP1 SWAP2 SUB SWAP1 LOG3 POP POP POP POP JUMP JUMPDEST PUSH1 0x1 PUSH1 0x1 PUSH1 0xA0 SHL SUB DUP4 AND PUSH2 0x12F6 JUMPI DUP1 PUSH1 0x2 PUSH1 0x0 DUP3 DUP3 SLOAD PUSH2 0x12EB SWAP2 SWAP1 PUSH2 0x17B8 JUMP JUMPDEST SWAP1 SWAP2 SSTORE POP PUSH2 0x1368 SWAP1 POP JUMP JUMPDEST PUSH1 0x1 PUSH1 0x1 PUSH1 0xA0 SHL SUB DUP4 AND PUSH1 0x0 SWAP1 DUP2 MSTORE PUSH1 0x20 DUP2 SWAP1 MSTORE PUSH1 0x40 SWAP1 KECCAK256 SLOAD DUP2 DUP2 LT ISZERO PUSH2 0x1349 JUMPI PUSH1 0x40 MLOAD PUSH4 0x391434E3 PUSH1 0xE2 SHL DUP2 MSTORE PUSH1 0x1 PUSH1 0x1 PUSH1 0xA0 SHL SUB DUP6 AND PUSH1 0x4 DUP3 ADD MSTORE PUSH1 0x24 DUP2 ADD DUP3 SWAP1 MSTORE PUSH1 0x44 DUP2 ADD DUP4 SWAP1 MSTORE PUSH1 0x64 ADD PUSH2 0x616 JUMP JUMPDEST PUSH1 0x1 PUSH1 0x1 PUSH1 0xA0 SHL SUB DUP5 AND PUSH1 0x0 SWAP1 DUP2 MSTORE PUSH1 0x20 DUP2 SWAP1 MSTORE PUSH1 0x40 SWAP1 KECCAK256 SWAP1 DUP3 SWAP1 SUB SWAP1 SSTORE JUMPDEST PUSH1 0x1 PUSH1 0x1 PUSH1 0xA0 SHL SUB DUP3 AND PUSH2 0x1384 JUMPI PUSH1 0x2 DUP1 SLOAD DUP3 SWAP1 SUB SWAP1 SSTORE PUSH2 0x13A3 JUMP JUMPDEST PUSH1 0x1 PUSH1 0x1 PUSH1 0xA0 SHL SUB DUP3 AND PUSH1 0x0 SWAP1 DUP2 MSTORE PUSH1 0x20 DUP2 SWAP1 MSTORE PUSH1 0x40 SWAP1 KECCAK256 DUP1 SLOAD DUP3 ADD SWAP1 SSTORE JUMPDEST DUP2 PUSH1 0x1 PUSH1 0x1 PUSH1 0xA0 SHL SUB AND DUP4 PUSH1 0x1 PUSH1 0x1 PUSH1 0xA0 SHL SUB AND PUSH32 0xDDF252AD1BE2C89B69C2B068FC378DAA952BA7F163C4A11628F55A4DF523B3EF DUP4 PUSH1 0x40 MLOAD PUSH2 0x13E8 SWAP2 DUP2 MSTORE PUSH1 0x20 ADD SWAP1 JUMP JUMPDEST PUSH1 0x40 MLOAD DUP1 SWAP2 SUB SWAP1 LOG3 POP POP POP JUMP JUMPDEST PUSH1 0x20 DUP2 MSTORE PUSH1 0x0 DUP3 MLOAD DUP1 PUSH1 0x20 DUP5 ADD MSTORE PUSH1 0x0 JUMPDEST DUP2 DUP2 LT ISZERO PUSH2 0x1423 JUMPI PUSH1 0x20 DUP2 DUP7 ADD DUP2 ADD MLOAD PUSH1 0x40 DUP7 DUP5 ADD ADD MSTORE ADD PUSH2 0x1406 JUMP JUMPDEST POP PUSH1 0x0 PUSH1 0x40 DUP3 DUP6 ADD ADD MSTORE PUSH1 0x40 PUSH1 0x1F NOT PUSH1 0x1F DUP4 ADD AND DUP5 ADD ADD SWAP2 POP POP SWAP3 SWAP2 POP POP JUMP JUMPDEST DUP1 CALLDATALOAD PUSH1 0x1 PUSH1 0x1 PUSH1 0xA0 SHL SUB DUP2 AND DUP2 EQ PUSH2 0x145A JUMPI PUSH1 0x0 DUP1 REVERT JUMPDEST SWAP2 SWAP1 POP JUMP JUMPDEST PUSH1 0x0 DUP1 PUSH1 0x40 DUP4 DUP6 SUB SLT ISZERO PUSH2 0x1472 JUMPI PUSH1 0x0 DUP1 REVERT JUMPDEST PUSH2 0x147B DUP4 PUSH2 0x1443 JUMP JUMPDEST SWAP5 PUSH1 0x20 SWAP4 SWAP1 SWAP4 ADD CALLDATALOAD SWAP4 POP POP POP JUMP JUMPDEST PUSH1 0x0 DUP1 PUSH1 0x0 PUSH1 0x60 DUP5 DUP7 SUB SLT ISZERO PUSH2 0x149E JUMPI PUSH1 0x0 DUP1 REVERT JUMPDEST PUSH2 0x14A7 DUP5 PUSH2 0x1443 JUMP JUMPDEST SWAP3 POP PUSH2 0x14B5 PUSH1 0x20 DUP6 ADD PUSH2 0x1443 JUMP JUMPDEST SWAP3 SWAP6 SWAP3 SWAP5 POP POP POP PUSH1 0x40 SWAP2 SWAP1 SWAP2 ADD CALLDATALOAD SWAP1 JUMP JUMPDEST PUSH1 0x0 PUSH1 0x20 DUP3 DUP5 SUB SLT ISZERO PUSH2 0x14D8 JUMPI PUSH1 0x0 DUP1 REVERT JUMPDEST PUSH2 0x14E1 DUP3 PUSH2 0x1443 JUMP JUMPDEST SWAP4 SWAP3 POP POP POP JUMP JUMPDEST PUSH1 0x0 PUSH1 0x20 DUP3 DUP5 SUB SLT ISZERO PUSH2 0x14FA JUMPI PUSH1 0x0 DUP1 REVERT JUMPDEST POP CALLDATALOAD SWAP2 SWAP1 POP JUMP JUMPDEST PUSH1 0x0 PUSH1 0x20 DUP3 DUP5 SUB SLT ISZERO PUSH2 0x1513 JUMPI PUSH1 0x0 DUP1 REVERT JUMPDEST DUP2 CALLDATALOAD DUP1 ISZERO ISZERO DUP2 EQ PUSH2 0x14E1 JUMPI PUSH1 0x0 DUP1 REVERT JUMPDEST PUSH1 0x0 DUP1 DUP4 PUSH1 0x1F DUP5 ADD SLT PUSH2 0x1535 JUMPI PUSH1 0x0 DUP1 REVERT JUMPDEST POP DUP2 CALLDATALOAD PUSH8 0xFFFFFFFFFFFFFFFF DUP2 GT ISZERO PUSH2 0x154D JUMPI PUSH1 0x0 DUP1 REVERT JUMPDEST PUSH1 0x20 DUP4 ADD SWAP2 POP DUP4 PUSH1 0x20 DUP3 PUSH1 0x5 SHL DUP6 ADD ADD GT ISZERO PUSH2 0x1568 JUMPI PUSH1 0x0 DUP1 REVERT JUMPDEST SWAP3 POP SWAP3 SWAP1 POP JUMP JUMPDEST PUSH1 0x0 DUP1 PUSH1 0x0 DUP1 PUSH1 0x40 DUP6 DUP8 SUB SLT ISZERO PUSH2 0x1585 JUMPI PUSH1 0x0 DUP1 REVERT JUMPDEST DUP5 CALLDATALOAD PUSH8 0xFFFFFFFFFFFFFFFF DUP2 GT ISZERO PUSH2 0x159C JUMPI PUSH1 0x0 DUP1 REVERT JUMPDEST PUSH2 0x15A8 DUP8 DUP3 DUP9 ADD PUSH2 0x1523 JUMP JUMPDEST SWAP1 SWAP6 POP SWAP4 POP POP PUSH1 0x20 DUP6 ADD CALLDATALOAD PUSH8 0xFFFFFFFFFFFFFFFF DUP2 GT ISZERO PUSH2 0x15C8 JUMPI PUSH1 0x0 DUP1 REVERT JUMPDEST PUSH2 0x15D4 DUP8 DUP3 DUP9 ADD PUSH2 0x1523 JUMP JUMPDEST SWAP6 SWAP9 SWAP5 SWAP8 POP SWAP6 POP POP POP POP JUMP JUMPDEST PUSH1 0x0 DUP1 PUSH1 0x40 DUP4 DUP6 SUB SLT ISZERO PUSH2 0x15F3 JUMPI PUSH1 0x0 DUP1 REVERT JUMPDEST PUSH2 0x15FC DUP4 PUSH2 0x1443 JUMP JUMPDEST SWAP2 POP PUSH2 0x160A PUSH1 0x20 DUP5 ADD PUSH2 0x1443 JUMP JUMPDEST SWAP1 POP SWAP3 POP SWAP3 SWAP1 POP JUMP JUMPDEST PUSH1 0x1 DUP2 DUP2 SHR SWAP1 DUP3 AND DUP1 PUSH2 0x1627 JUMPI PUSH1 0x7F DUP3 AND SWAP2 POP JUMPDEST PUSH1 0x20 DUP3 LT DUP2 SUB PUSH2 0x1647 JUMPI PUSH4 0x4E487B71 PUSH1 0xE0 SHL PUSH1 0x0 MSTORE PUSH1 0x22 PUSH1 0x4 MSTORE PUSH1 0x24 PUSH1 0x0 REVERT JUMPDEST POP SWAP2 SWAP1 POP JUMP JUMPDEST PUSH1 0x20 DUP1 DUP3 MSTORE PUSH1 0x28 SWAP1 DUP3 ADD MSTORE PUSH32 0x546F7265546F6B656E3A20416D6F756E74206D75737420626520677265617465 PUSH1 0x40 DUP3 ADD MSTORE PUSH8 0x72207468616E203 PUSH1 0xC4 SHL PUSH1 0x60 DUP3 ADD MSTORE PUSH1 0x80 ADD SWAP1 JUMP JUMPDEST PUSH4 0x4E487B71 PUSH1 0xE0 SHL PUSH1 0x0 MSTORE PUSH1 0x11 PUSH1 0x4 MSTORE PUSH1 0x24 PUSH1 0x0 REVERT JUMPDEST PUSH1 0x1 DUP2 JUMPDEST PUSH1 0x1 DUP5 GT ISZERO PUSH2 0x16E6 JUMPI DUP1 DUP6 DIV DUP2 GT ISZERO PUSH2 0x16CA JUMPI PUSH2 0x16CA PUSH2 0x1695 JUMP JUMPDEST PUSH1 0x1 DUP5 AND ISZERO PUSH2 0x16D8 JUMPI SWAP1 DUP2 MUL SWAP1 JUMPDEST PUSH1 0x1 SWAP4 SWAP1 SWAP4 SHR SWAP3 DUP1 MUL PUSH2 0x16AF JUMP JUMPDEST SWAP4 POP SWAP4 SWAP2 POP POP JUMP JUMPDEST PUSH1 0x0 DUP3 PUSH2 0x16FD JUMPI POP PUSH1 0x1 PUSH2 0x535 JUMP JUMPDEST DUP2 PUSH2 0x170A JUMPI POP PUSH1 0x0 PUSH2 0x535 JUMP JUMPDEST DUP2 PUSH1 0x1 DUP2 EQ PUSH2 0x1720 JUMPI PUSH1 0x2 DUP2 EQ PUSH2 0x172A JUMPI PUSH2 0x1746 JUMP JUMPDEST PUSH1 0x1 SWAP2 POP POP PUSH2 0x535 JUMP JUMPDEST PUSH1 0xFF DUP5 GT ISZERO PUSH2 0x173B JUMPI PUSH2 0x173B PUSH2 0x1695 JUMP JUMPDEST POP POP PUSH1 0x1 DUP3 SHL PUSH2 0x535 JUMP JUMPDEST POP PUSH1 0x20 DUP4 LT PUSH2 0x133 DUP4 LT AND PUSH1 0x4E DUP5 LT PUSH1 0xB DUP5 LT AND OR ISZERO PUSH2 0x1769 JUMPI POP DUP2 DUP2 EXP PUSH2 0x535 JUMP JUMPDEST PUSH2 0x1776 PUSH1 0x0 NOT DUP5 DUP5 PUSH2 0x16AB JUMP JUMPDEST DUP1 PUSH1 0x0 NOT DIV DUP3 GT ISZERO PUSH2 0x178A JUMPI PUSH2 0x178A PUSH2 0x1695 JUMP JUMPDEST MUL SWAP4 SWAP3 POP POP POP JUMP JUMPDEST PUSH1 0x0 PUSH2 0x14E1 PUSH1 0xFF DUP5 AND DUP4 PUSH2 0x16EE JUMP JUMPDEST DUP1 DUP3 MUL DUP2 ISZERO DUP3 DUP3 DIV DUP5 EQ OR PUSH2 0x535 JUMPI PUSH2 0x535 PUSH2 0x1695 JUMP JUMPDEST DUP1 DUP3 ADD DUP1 DUP3 GT ISZERO PUSH2 0x535 JUMPI PUSH2 0x535 PUSH2 0x1695 JUMP JUMPDEST PUSH1 0x20 DUP1 DUP3 MSTORE PUSH1 0x1F SWAP1 DUP3 ADD MSTORE PUSH32 0x546F7265546F6B656E3A20496E73756666696369656E742062616C616E636500 PUSH1 0x40 DUP3 ADD MSTORE PUSH1 0x60 ADD SWAP1 JUMP JUMPDEST DUP2 DUP2 SUB DUP2 DUP2 GT ISZERO PUSH2 0x535 JUMPI PUSH2 0x535 PUSH2 0x1695 JUMP JUMPDEST PUSH1 0x20 DUP1 DUP3 MSTORE PUSH1 0x35 SWAP1 DUP3 ADD MSTORE PUSH32 0x546F7265546F6B656E3A204F6E6C7920617574686F72697A65642067616D6520 PUSH1 0x40 DUP3 ADD MSTORE PUSH21 0x636F6E747261637473206F72206D616E6167657273 PUSH1 0x58 SHL PUSH1 0x60 DUP3 ADD MSTORE PUSH1 0x80 ADD SWAP1 JUMP JUMPDEST PUSH4 0x4E487B71 PUSH1 0xE0 SHL PUSH1 0x0 MSTORE PUSH1 0x32 PUSH1 0x4 MSTORE PUSH1 0x24 PUSH1 0x0 REVERT INVALID LOG2 PUSH5 0x6970667358 0x22 SLT KECCAK256 GAS DELEGATECALL GAS 0x1E LOG0 0xB6 0xEB SDIV 0xE5 BYTE 0xE1 0xA5 0xEB STOP STOP NUMBER 0xD6 SDIV LOG4 0xC6 0xCE 0xCF CREATE BYTE BLOBHASH OR SHL CREATE PUSH9 0xA552D064736F6C6343 STOP ADDMOD BYTE STOP CALLER "},"methodIdentifiers":{"addGameContract(address)":"81cd08ee","addGameManager(address)":"77620c1c","allowance(address,address)":"dd62ed3e","approve(address,uint256)":"095ea7b3","balanceOf(address)":"70a08231","batchTransfer(address[],uint256[])":"88d695b2","burn(uint256)":"42966c68","burnFrom(address,uint256)":"79cc6790","decimals()":"313ce567","distributeGameReward(address,uint256)":"fa1bbe78","gameContracts(address)":"6ddd474d","gameManagers(address)":"87391133","getMintedAmount()":"88ab4168","isGameContract(address)":"c04a7d0d","isGameManager(address)":"e045fd04","isMintingEnabled()":"55c7ba14","maxSupply()":"d5abeb01","mint(address,uint256)":"40c10f19","mintedAmount()":"2d380242","mintingEnabled()":"9fd6db12","name()":"06fdde03","owner()":"8da5cb5b","removeGameContract(address)":"5c74e025","removeGameManager(address)":"37d19214","renounceOwnership()":"715018a6","setMintingEnabled(bool)":"4ea3871a","symbol()":"95d89b41","totalSupply()":"18160ddd","transfer(address,uint256)":"a9059cbb","transferFrom(address,address,uint256)":"23b872dd","transferOwnership(address)":"f2fde38b"}}}}}