{
  "_format": "hh-sol-artifact-1",
  "contractName": "GameItem",
  "sourceName": "contracts/GameItem.sol",
  "abi": [
    {
      "inputs": [
        {
          "internalType": "string",
          "name": "name_",
          "type": "string"
        },
        {
          "internalType": "string",
          "name": "symbol_",
          "type": "string"
        },
        {
          "internalType": "address",
          "name": "initialOwner",
          "type": "address"
        }
      ],
      "stateMutability": "nonpayable",
      "type": "constructor"
    },
    {
      "inputs": [
        {
          "internalType": "address",
          "name": "sender",
          "type": "address"
        },
        {
          "internalType": "uint256",
          "name": "tokenId",
          "type": "uint256"
        },
        {
          "internalType": "address",
          "name": "owner",
          "type": "address"
        }
      ],
      "name": "ERC721IncorrectOwner",
      "type": "error"
    },
    {
      "inputs": [
        {
          "internalType": "address",
          "name": "operator",
          "type": "address"
        },
        {
          "internalType": "uint256",
          "name": "tokenId",
          "type": "uint256"
        }
      ],
      "name": "ERC721InsufficientApproval",
      "type": "error"
    },
    {
      "inputs": [
        {
          "internalType": "address",
          "name": "approver",
          "type": "address"
        }
      ],
      "name": "ERC721InvalidApprover",
      "type": "error"
    },
    {
      "inputs": [
        {
          "internalType": "address",
          "name": "operator",
          "type": "address"
        }
      ],
      "name": "ERC721InvalidOperator",
      "type": "error"
    },
    {
      "inputs": [
        {
          "internalType": "address",
          "name": "owner",
          "type": "address"
        }
      ],
      "name": "ERC721InvalidOwner",
      "type": "error"
    },
    {
      "inputs": [
        {
          "internalType": "address",
          "name": "receiver",
          "type": "address"
        }
      ],
      "name": "ERC721InvalidReceiver",
      "type": "error"
    },
    {
      "inputs": [
        {
          "internalType": "address",
          "name": "sender",
          "type": "address"
        }
      ],
      "name": "ERC721InvalidSender",
      "type": "error"
    },
    {
      "inputs": [
        {
          "internalType": "uint256",
          "name": "tokenId",
          "type": "uint256"
        }
      ],
      "name": "ERC721NonexistentToken",
      "type": "error"
    },
    {
      "inputs": [
        {
          "internalType": "address",
          "name": "owner",
          "type": "address"
        }
      ],
      "name": "OwnableInvalidOwner",
      "type": "error"
    },
    {
      "inputs": [
        {
          "internalType": "address",
          "name": "account",
          "type": "address"
        }
      ],
      "name": "OwnableUnauthorizedAccount",
      "type": "error"
    },
    {
      "anonymous": false,
      "inputs": [
        {
          "indexed": true,
          "internalType": "address",
          "name": "owner",
          "type": "address"
        },
        {
          "indexed": true,
          "internalType": "address",
          "name": "approved",
          "type": "address"
        },
        {
          "indexed": true,
          "internalType": "uint256",
          "name": "tokenId",
          "type": "uint256"
        }
      ],
      "name": "Approval",
      "type": "event"
    },
    {
      "anonymous": false,
      "inputs": [
        {
          "indexed": true,
          "internalType": "address",
          "name": "owner",
          "type": "address"
        },
        {
          "indexed": true,
          "internalType": "address",
          "name": "operator",
          "type": "address"
        },
        {
          "indexed": false,
          "internalType": "bool",
          "name": "approved",
          "type": "bool"
        }
      ],
      "name": "ApprovalForAll",
      "type": "event"
    },
    {
      "anonymous": false,
      "inputs": [
        {
          "indexed": false,
          "internalType": "uint256",
          "name": "_fromTokenId",
          "type": "uint256"
        },
        {
          "indexed": false,
          "internalType": "uint256",
          "name": "_toTokenId",
          "type": "uint256"
        }
      ],
      "name": "BatchMetadataUpdate",
      "type": "event"
    },
    {
      "anonymous": false,
      "inputs": [
        {
          "indexed": false,
          "internalType": "uint256",
          "name": "_tokenId",
          "type": "uint256"
        }
      ],
      "name": "MetadataUpdate",
      "type": "event"
    },
    {
      "anonymous": false,
      "inputs": [
        {
          "indexed": true,
          "internalType": "address",
          "name": "previousOwner",
          "type": "address"
        },
        {
          "indexed": true,
          "internalType": "address",
          "name": "newOwner",
          "type": "address"
        }
      ],
      "name": "OwnershipTransferred",
      "type": "event"
    },
    {
      "anonymous": false,
      "inputs": [
        {
          "indexed": true,
          "internalType": "address",
          "name": "from",
          "type": "address"
        },
        {
          "indexed": true,
          "internalType": "address",
          "name": "to",
          "type": "address"
        },
        {
          "indexed": true,
          "internalType": "uint256",
          "name": "tokenId",
          "type": "uint256"
        }
      ],
      "name": "Transfer",
      "type": "event"
    },
    {
      "inputs": [
        {
          "internalType": "address",
          "name": "to",
          "type": "address"
        },
        {
          "internalType": "uint256",
          "name": "tokenId",
          "type": "uint256"
        }
      ],
      "name": "approve",
      "outputs": [],
      "stateMutability": "nonpayable",
      "type": "function"
    },
    {
      "inputs": [
        {
          "internalType": "address",
          "name": "owner",
          "type": "address"
        }
      ],
      "name": "balanceOf",
      "outputs": [
        {
          "internalType": "uint256",
          "name": "",
          "type": "uint256"
        }
      ],
      "stateMutability": "view",
      "type": "function"
    },
    {
      "inputs": [
        {
          "internalType": "uint256",
          "name": "tokenId",
          "type": "uint256"
        }
      ],
      "name": "burn",
      "outputs": [],
      "stateMutability": "nonpayable",
      "type": "function"
    },
    {
      "inputs": [
        {
          "internalType": "uint256",
          "name": "tokenId",
          "type": "uint256"
        }
      ],
      "name": "getApproved",
      "outputs": [
        {
          "internalType": "address",
          "name": "",
          "type": "address"
        }
      ],
      "stateMutability": "view",
      "type": "function"
    },
    {
      "inputs": [
        {
          "internalType": "address",
          "name": "owner",
          "type": "address"
        },
        {
          "internalType": "address",
          "name": "operator",
          "type": "address"
        }
      ],
      "name": "isApprovedForAll",
      "outputs": [
        {
          "internalType": "bool",
          "name": "",
          "type": "bool"
        }
      ],
      "stateMutability": "view",
      "type": "function"
    },
    {
      "inputs": [
        {
          "internalType": "address",
          "name": "to",
          "type": "address"
        },
        {
          "internalType": "string",
          "name": "tokenURI_",
          "type": "string"
        }
      ],
      "name": "mint",
      "outputs": [
        {
          "internalType": "uint256",
          "name": "tokenId",
          "type": "uint256"
        }
      ],
      "stateMutability": "nonpayable",
      "type": "function"
    },
    {
      "inputs": [],
      "name": "name",
      "outputs": [
        {
          "internalType": "string",
          "name": "",
          "type": "string"
        }
      ],
      "stateMutability": "view",
      "type": "function"
    },
    {
      "inputs": [],
      "name": "nextTokenId",
      "outputs": [
        {
          "internalType": "uint256",
          "name": "",
          "type": "uint256"
        }
      ],
      "stateMutability": "view",
      "type": "function"
    },
    {
      "inputs": [],
      "name": "owner",
      "outputs": [
        {
          "internalType": "address",
          "name": "",
          "type": "address"
        }
      ],
      "stateMutability": "view",
      "type": "function"
    },
    {
      "inputs": [
        {
          "internalType": "uint256",
          "name": "tokenId",
          "type": "uint256"
        }
      ],
      "name": "ownerOf",
      "outputs": [
        {
          "internalType": "address",
          "name": "",
          "type": "address"
        }
      ],
      "stateMutability": "view",
      "type": "function"
    },
    {
      "inputs": [],
      "name": "renounceOwnership",
      "outputs": [],
      "stateMutability": "nonpayable",
      "type": "function"
    },
    {
      "inputs": [
        {
          "internalType": "address",
          "name": "from",
          "type": "address"
        },
        {
          "internalType": "address",
          "name": "to",
          "type": "address"
        },
        {
          "internalType": "uint256",
          "name": "tokenId",
          "type": "uint256"
        }
      ],
      "name": "safeTransferFrom",
      "outputs": [],
      "stateMutability": "nonpayable",
      "type": "function"
    },
    {
      "inputs": [
        {
          "internalType": "address",
          "name": "from",
          "type": "address"
        },
        {
          "internalType": "address",
          "name": "to",
          "type": "address"
        },
        {
          "internalType": "uint256",
          "name": "tokenId",
          "type": "uint256"
        },
        {
          "internalType": "bytes",
          "name": "data",
          "type": "bytes"
        }
      ],
      "name": "safeTransferFrom",
      "outputs": [],
      "stateMutability": "nonpayable",
      "type": "function"
    },
    {
      "inputs": [
        {
          "internalType": "address",
          "name": "operator",
          "type": "address"
        },
        {
          "internalType": "bool",
          "name": "approved",
          "type": "bool"
        }
      ],
      "name": "setApprovalForAll",
      "outputs": [],
      "stateMutability": "nonpayable",
      "type": "function"
    },
    {
      "inputs": [
        {
          "internalType": "bytes4",
          "name": "interfaceId",
          "type": "bytes4"
        }
      ],
      "name": "supportsInterface",
      "outputs": [
        {
          "internalType": "bool",
          "name": "",
          "type": "bool"
        }
      ],
      "stateMutability": "view",
      "type": "function"
    },
    {
      "inputs": [],
      "name": "symbol",
      "outputs": [
        {
          "internalType": "string",
          "name": "",
          "type": "string"
        }
      ],
      "stateMutability": "view",
      "type": "function"
    },
    {
      "inputs": [
        {
          "internalType": "uint256",
          "name": "tokenId",
          "type": "uint256"
        }
      ],
      "name": "tokenURI",
      "outputs": [
        {
          "internalType": "string",
          "name": "",
          "type": "string"
        }
      ],
      "stateMutability": "view",
      "type": "function"
    },
    {
      "inputs": [
        {
          "internalType": "address",
          "name": "from",
          "type": "address"
        },
        {
          "internalType": "address",
          "name": "to",
          "type": "address"
        },
        {
          "internalType": "uint256",
          "name": "tokenId",
          "type": "uint256"
        }
      ],
      "name": "transferFrom",
      "outputs": [],
      "stateMutability": "nonpayable",
      "type": "function"
    },
    {
      "inputs": [
        {
          "internalType": "address",
          "name": "newOwner",
          "type": "address"
        }
      ],
      "name": "transferOwnership",
      "outputs": [],
      "stateMutability": "nonpayable",
      "type": "function"
    }
  ],
  "bytecode": "0x608060405234801561001057600080fd5b5060405161184d38038061184d83398101604081905261002f91610199565b808383600061003e83826102ad565b50600161004b82826102ad565b5050506001600160a01b03811661007c57604051631e4fbdf760e01b81526000600482015260240160405180910390fd5b6100858161008e565b5050505061036b565b600780546001600160a01b038381166001600160a01b0319831681179093556040519116919082907f8be0079c531659141344cd1fd0a4f28419497f9722a3daafe3b4186f6b6457e090600090a35050565b634e487b7160e01b600052604160045260246000fd5b600082601f83011261010757600080fd5b81516001600160401b03811115610120576101206100e0565b604051601f8201601f19908116603f011681016001600160401b038111828210171561014e5761014e6100e0565b60405281815283820160200185101561016657600080fd5b60005b8281101561018557602081860181015183830182015201610169565b506000918101602001919091529392505050565b6000806000606084860312156101ae57600080fd5b83516001600160401b038111156101c457600080fd5b6101d0868287016100f6565b602086015190945090506001600160401b038111156101ee57600080fd5b6101fa868287016100f6565b604086015190935090506001600160a01b038116811461021957600080fd5b809150509250925092565b600181811c9082168061023857607f821691505b60208210810361025857634e487b7160e01b600052602260045260246000fd5b50919050565b601f8211156102a857806000526020600020601f840160051c810160208510156102855750805b601f840160051c820191505b818110156102a55760008155600101610291565b50505b505050565b81516001600160401b038111156102c6576102c66100e0565b6102da816102d48454610224565b8461025e565b6020601f82116001811461030e57600083156102f65750848201515b600019600385901b1c1916600184901b1784556102a5565b600084815260208120601f198516915b8281101561033e578785015182556020948501946001909201910161031e565b508482101561035c5786840151600019600387901b60f8161c191681555b50505050600190811b01905550565b6114d38061037a6000396000f3fe608060405234801561001057600080fd5b50600436106101215760003560e01c8063715018a6116100ad578063b88d4fde11610071578063b88d4fde1461024c578063c87b56dd1461025f578063d0def52114610272578063e985e9c514610285578063f2fde38b1461029857600080fd5b8063715018a61461021057806375794a3c146102185780638da5cb5b1461022057806395d89b4114610231578063a22cb4651461023957600080fd5b806323b872dd116100f457806323b872dd146101a357806342842e0e146101b657806342966c68146101c95780636352211e146101dc57806370a08231146101ef57600080fd5b806301ffc9a71461012657806306fdde031461014e578063081812fc14610163578063095ea7b31461018e575b600080fd5b610139610134366004610f7e565b6102ab565b60405190151581526020015b60405180910390f35b6101566102d6565b6040516101459190610feb565b610176610171366004610ffe565b610368565b6040516001600160a01b039091168152602001610145565b6101a161019c366004611033565b610391565b005b6101a16101b136600461105d565b6103a0565b6101a16101c436600461105d565b610430565b6101a16101d7366004610ffe565b610450565b6101766101ea366004610ffe565b610464565b6102026101fd36600461109a565b61046f565b604051908152602001610145565b6101a16104b7565b6102026104cb565b6007546001600160a01b0316610176565b6101566104e1565b6101a16102473660046110b5565b6104f0565b6101a161025a366004611181565b6104fb565b61015661026d366004610ffe565b610513565b6102026102803660046111fd565b610624565b61013961029336600461125f565b610658565b6101a16102a636600461109a565b610686565b60006001600160e01b03198216632483248360e11b14806102d057506102d0826106c1565b92915050565b6060600080546102e590611292565b80601f016020809104026020016040519081016040528092919081815260200182805461031190611292565b801561035e5780601f106103335761010080835404028352916020019161035e565b820191906000526020600020905b81548152906001019060200180831161034157829003601f168201915b5050505050905090565b600061037382610711565b506000828152600460205260409020546001600160a01b03166102d0565b61039c82823361074a565b5050565b6001600160a01b0382166103cf57604051633250574960e11b8152600060048201526024015b60405180910390fd5b60006103dc838333610757565b9050836001600160a01b0316816001600160a01b03161461042a576040516364283d7b60e01b81526001600160a01b03808616600483015260248201849052821660448201526064016103c6565b50505050565b61044b838383604051806020016040528060008152506104fb565b505050565b610458610850565b6104618161087d565b50565b60006102d082610711565b60006001600160a01b03821661049b576040516322718ad960e21b8152600060048201526024016103c6565b506001600160a01b031660009081526003602052604090205490565b6104bf610850565b6104c960006108b8565b565b600060085460016104dc91906112e2565b905090565b6060600180546102e590611292565b61039c33838361090a565b6105068484846103a0565b61042a33858585856109a9565b606061051e82610711565b506000828152600660205260408120805461053890611292565b80601f016020809104026020016040519081016040528092919081815260200182805461056490611292565b80156105b15780601f10610586576101008083540402835291602001916105b1565b820191906000526020600020905b81548152906001019060200180831161059457829003601f168201915b5050505050905060006105cf60408051602081019091526000815290565b905080516000036105e1575092915050565b8151156106135780826040516020016105fb9291906112f5565b60405160208183030381529060405292505050919050565b61061c84610ad4565b949350505050565b600061062e610850565b60086000815461063d90611324565b9182905550905061064e8382610b49565b6102d08183610b63565b6001600160a01b03918216600090815260056020908152604080832093909416825291909152205460ff1690565b61068e610850565b6001600160a01b0381166106b857604051631e4fbdf760e01b8152600060048201526024016103c6565b610461816108b8565b60006001600160e01b031982166380ac58cd60e01b14806106f257506001600160e01b03198216635b5e139f60e01b145b806102d057506301ffc9a760e01b6001600160e01b03198316146102d0565b6000818152600260205260408120546001600160a01b0316806102d057604051637e27328960e01b8152600481018490526024016103c6565b61044b8383836001610bb3565b6000828152600260205260408120546001600160a01b039081169083161561078457610784818486610cb9565b6001600160a01b038116156107c2576107a1600085600080610bb3565b6001600160a01b038116600090815260036020526040902080546000190190555b6001600160a01b038516156107f1576001600160a01b0385166000908152600360205260409020805460010190555b60008481526002602052604080822080546001600160a01b0319166001600160a01b0389811691821790925591518793918516917fddf252ad1be2c89b69c2b068fc378daa952ba7f163c4a11628f55a4df523b3ef91a4949350505050565b6007546001600160a01b031633146104c95760405163118cdaa760e01b81523360048201526024016103c6565b600061088c6000836000610757565b90506001600160a01b03811661039c57604051637e27328960e01b8152600481018390526024016103c6565b600780546001600160a01b038381166001600160a01b0319831681179093556040519116919082907f8be0079c531659141344cd1fd0a4f28419497f9722a3daafe3b4186f6b6457e090600090a35050565b6001600160a01b03821661093c57604051630b61174360e31b81526001600160a01b03831660048201526024016103c6565b6001600160a01b03838116600081815260056020908152604080832094871680845294825291829020805460ff191686151590811790915591519182527f17307eab39ab6107e8899845ad3d59bd9653f200f220920489ca2b5937696c31910160405180910390a3505050565b6001600160a01b0383163b15610acd57604051630a85bd0160e11b81526001600160a01b0384169063150b7a02906109eb90889088908790879060040161133d565b6020604051808303816000875af1925050508015610a26575060408051601f3d908101601f19168201909252610a239181019061137a565b60015b610a8f573d808015610a54576040519150601f19603f3d011682016040523d82523d6000602084013e610a59565b606091505b508051600003610a8757604051633250574960e11b81526001600160a01b03851660048201526024016103c6565b805160208201fd5b6001600160e01b03198116630a85bd0160e11b14610acb57604051633250574960e11b81526001600160a01b03851660048201526024016103c6565b505b5050505050565b6060610adf82610711565b506000610af760408051602081019091526000815290565b90506000815111610b175760405180602001604052806000815250610b42565b80610b2184610d1d565b604051602001610b329291906112f5565b6040516020818303038152906040525b9392505050565b61039c828260405180602001604052806000815250610db0565b6000828152600660205260409020610b7b82826113de565b506040518281527ff8e1a15aba9398e019f0b49df1a4fde98ee17ae345cb5f6b5e2c27f5033e8ce79060200160405180910390a15050565b8080610bc757506001600160a01b03821615155b15610c89576000610bd784610711565b90506001600160a01b03831615801590610c035750826001600160a01b0316816001600160a01b031614155b8015610c165750610c148184610658565b155b15610c3f5760405163a9fbf51f60e01b81526001600160a01b03841660048201526024016103c6565b8115610c875783856001600160a01b0316826001600160a01b03167f8c5be1e5ebec7d5bd14f71427d1e84f3dd0314c0f7b2291e5b200ac8c7c3b92560405160405180910390a45b505b5050600090815260046020526040902080546001600160a01b0319166001600160a01b0392909216919091179055565b610cc4838383610dc8565b61044b576001600160a01b038316610cf257604051637e27328960e01b8152600481018290526024016103c6565b60405163177e802f60e01b81526001600160a01b0383166004820152602481018290526044016103c6565b60606000610d2a83610e2b565b600101905060008167ffffffffffffffff811115610d4a57610d4a6110f1565b6040519080825280601f01601f191660200182016040528015610d74576020820181803683370190505b5090508181016020015b600019016f181899199a1a9b1b9c1cb0b131b232b360811b600a86061a8153600a8504945084610d7e57509392505050565b610dba8383610f03565b61044b3360008585856109a9565b60006001600160a01b0383161580159061061c5750826001600160a01b0316846001600160a01b03161480610e025750610e028484610658565b8061061c5750506000908152600460205260409020546001600160a01b03908116911614919050565b60008072184f03e93ff9f4daa797ed6e38ed64bf6a1f0160401b8310610e6a5772184f03e93ff9f4daa797ed6e38ed64bf6a1f0160401b830492506040015b6d04ee2d6d415b85acef81000000008310610e96576d04ee2d6d415b85acef8100000000830492506020015b662386f26fc100008310610eb457662386f26fc10000830492506010015b6305f5e1008310610ecc576305f5e100830492506008015b6127108310610ee057612710830492506004015b60648310610ef2576064830492506002015b600a83106102d05760010192915050565b6001600160a01b038216610f2d57604051633250574960e11b8152600060048201526024016103c6565b6000610f3b83836000610757565b90506001600160a01b0381161561044b576040516339e3563760e11b8152600060048201526024016103c6565b6001600160e01b03198116811461046157600080fd5b600060208284031215610f9057600080fd5b8135610b4281610f68565b60005b83811015610fb6578181015183820152602001610f9e565b50506000910152565b60008151808452610fd7816020860160208601610f9b565b601f01601f19169290920160200192915050565b602081526000610b426020830184610fbf565b60006020828403121561101057600080fd5b5035919050565b80356001600160a01b038116811461102e57600080fd5b919050565b6000806040838503121561104657600080fd5b61104f83611017565b946020939093013593505050565b60008060006060848603121561107257600080fd5b61107b84611017565b925061108960208501611017565b929592945050506040919091013590565b6000602082840312156110ac57600080fd5b610b4282611017565b600080604083850312156110c857600080fd5b6110d183611017565b9150602083013580151581146110e657600080fd5b809150509250929050565b634e487b7160e01b600052604160045260246000fd5b60008067ffffffffffffffff841115611122576111226110f1565b50604051601f19601f85018116603f0116810181811067ffffffffffffffff82111715611151576111516110f1565b60405283815290508082840185101561116957600080fd5b83836020830137600060208583010152509392505050565b6000806000806080858703121561119757600080fd5b6111a085611017565b93506111ae60208601611017565b925060408501359150606085013567ffffffffffffffff8111156111d157600080fd5b8501601f810187136111e257600080fd5b6111f187823560208401611107565b91505092959194509250565b6000806040838503121561121057600080fd5b61121983611017565b9150602083013567ffffffffffffffff81111561123557600080fd5b8301601f8101851361124657600080fd5b61125585823560208401611107565b9150509250929050565b6000806040838503121561127257600080fd5b61127b83611017565b915061128960208401611017565b90509250929050565b600181811c908216806112a657607f821691505b6020821081036112c657634e487b7160e01b600052602260045260246000fd5b50919050565b634e487b7160e01b600052601160045260246000fd5b808201808211156102d0576102d06112cc565b60008351611307818460208801610f9b565b83519083019061131b818360208801610f9b565b01949350505050565b600060018201611336576113366112cc565b5060010190565b6001600160a01b038581168252841660208201526040810183905260806060820181905260009061137090830184610fbf565b9695505050505050565b60006020828403121561138c57600080fd5b8151610b4281610f68565b601f82111561044b57806000526020600020601f840160051c810160208510156113be5750805b601f840160051c820191505b81811015610acd57600081556001016113ca565b815167ffffffffffffffff8111156113f8576113f86110f1565b61140c816114068454611292565b84611397565b6020601f82116001811461144057600083156114285750848201515b600019600385901b1c1916600184901b178455610acd565b600084815260208120601f198516915b828110156114705787850151825560209485019460019092019101611450565b508482101561148e5786840151600019600387901b60f8161c191681555b50505050600190811b0190555056fea26469706673582212208318d1051adf7051dd2643a3d42c1b9939492208ef951e8693bbb1c688d2efcf64736f6c634300081a0033",
  "linkReferences": {},
  "deployedLinkReferences": {}
}