{
  "_format": "hh-sol-artifact-1",
  "contractName": "ToreToken",
  "sourceName": "contracts/ToreToken.sol",
  "abi": [
    {
      "inputs": [
        {
          "internalType": "address",
          "name": "initialOwner",
          "type": "address"
        }
      ],
      "stateMutability": "nonpayable",
      "type": "constructor"
    },
    {
      "inputs": [
        {
          "internalType": "address",
          "name": "spender",
          "type": "address"
        },
        {
          "internalType": "uint256",
          "name": "allowance",
          "type": "uint256"
        },
        {
          "internalType": "uint256",
          "name": "needed",
          "type": "uint256"
        }
      ],
      "name": "ERC20InsufficientAllowance",
      "type": "error"
    },
    {
      "inputs": [
        {
          "internalType": "address",
          "name": "sender",
          "type": "address"
        },
        {
          "internalType": "uint256",
          "name": "balance",
          "type": "uint256"
        },
        {
          "internalType": "uint256",
          "name": "needed",
          "type": "uint256"
        }
      ],
      "name": "ERC20InsufficientBalance",
      "type": "error"
    },
    {
      "inputs": [
        {
          "internalType": "address",
          "name": "approver",
          "type": "address"
        }
      ],
      "name": "ERC20InvalidApprover",
      "type": "error"
    },
    {
      "inputs": [
        {
          "internalType": "address",
          "name": "receiver",
          "type": "address"
        }
      ],
      "name": "ERC20InvalidReceiver",
      "type": "error"
    },
    {
      "inputs": [
        {
          "internalType": "address",
          "name": "sender",
          "type": "address"
        }
      ],
      "name": "ERC20InvalidSender",
      "type": "error"
    },
    {
      "inputs": [
        {
          "internalType": "address",
          "name": "spender",
          "type": "address"
        }
      ],
      "name": "ERC20InvalidSpender",
      "type": "error"
    },
    {
      "inputs": [
        {
          "internalType": "address",
          "name": "owner",
          "type": "address"
        }
      ],
      "name": "OwnableInvalidOwner",
      "type": "error"
    },
    {
      "inputs": [
        {
          "internalType": "address",
          "name": "account",
          "type": "address"
        }
      ],
      "name": "OwnableUnauthorizedAccount",
      "type": "error"
    },
    {
      "anonymous": false,
      "inputs": [
        {
          "indexed": true,
          "internalType": "address",
          "name": "owner",
          "type": "address"
        },
        {
          "indexed": true,
          "internalType": "address",
          "name": "spender",
          "type": "address"
        },
        {
          "indexed": false,
          "internalType": "uint256",
          "name": "value",
          "type": "uint256"
        }
      ],
      "name": "Approval",
      "type": "event"
    },
    {
      "anonymous": false,
      "inputs": [
        {
          "indexed": false,
          "internalType": "uint256",
          "name": "totalAmount",
          "type": "uint256"
        },
        {
          "indexed": false,
          "internalType": "uint256",
          "name": "recipientCount",
          "type": "uint256"
        }
      ],
      "name": "BatchTransferCompleted",
      "type": "event"
    },
    {
      "anonymous": false,
      "inputs": [
        {
          "indexed": true,
          "internalType": "address",
          "name": "contractAddress",
          "type": "address"
        }
      ],
      "name": "GameContractAdded",
      "type": "event"
    },
    {
      "anonymous": false,
      "inputs": [
        {
          "indexed": true,
          "internalType": "address",
          "name": "contractAddress",
          "type": "address"
        }
      ],
      "name": "GameContractRemoved",
      "type": "event"
    },
    {
      "anonymous": false,
      "inputs": [
        {
          "indexed": true,
          "internalType": "address",
          "name": "manager",
          "type": "address"
        }
      ],
      "name": "GameManagerAdded",
      "type": "event"
    },
    {
      "anonymous": false,
      "inputs": [
        {
          "indexed": true,
          "internalType": "address",
          "name": "manager",
          "type": "address"
        }
      ],
      "name": "GameManagerRemoved",
      "type": "event"
    },
    {
      "anonymous": false,
      "inputs": [
        {
          "indexed": true,
          "internalType": "address",
          "name": "player",
          "type": "address"
        },
        {
          "indexed": false,
          "internalType": "uint256",
          "name": "amount",
          "type": "uint256"
        }
      ],
      "name": "GameRewardDistributed",
      "type": "event"
    },
    {
      "anonymous": false,
      "inputs": [
        {
          "indexed": false,
          "internalType": "bool",
          "name": "enabled",
          "type": "bool"
        }
      ],
      "name": "MintingEnabled",
      "type": "event"
    },
    {
      "anonymous": false,
      "inputs": [
        {
          "indexed": true,
          "internalType": "address",
          "name": "previousOwner",
          "type": "address"
        },
        {
          "indexed": true,
          "internalType": "address",
          "name": "newOwner",
          "type": "address"
        }
      ],
      "name": "OwnershipTransferred",
      "type": "event"
    },
    {
      "anonymous": false,
      "inputs": [
        {
          "indexed": true,
          "internalType": "address",
          "name": "from",
          "type": "address"
        },
        {
          "indexed": false,
          "internalType": "uint256",
          "name": "amount",
          "type": "uint256"
        }
      ],
      "name": "TokensBurned",
      "type": "event"
    },
    {
      "anonymous": false,
      "inputs": [
        {
          "indexed": true,
          "internalType": "address",
          "name": "to",
          "type": "address"
        },
        {
          "indexed": false,
          "internalType": "uint256",
          "name": "amount",
          "type": "uint256"
        }
      ],
      "name": "TokensMinted",
      "type": "event"
    },
    {
      "anonymous": false,
      "inputs": [
        {
          "indexed": true,
          "internalType": "address",
          "name": "from",
          "type": "address"
        },
        {
          "indexed": true,
          "internalType": "address",
          "name": "to",
          "type": "address"
        },
        {
          "indexed": false,
          "internalType": "uint256",
          "name": "value",
          "type": "uint256"
        }
      ],
      "name": "Transfer",
      "type": "event"
    },
    {
      "inputs": [
        {
          "internalType": "address",
          "name": "contractAddress",
          "type": "address"
        }
      ],
      "name": "addGameContract",
      "outputs": [],
      "stateMutability": "nonpayable",
      "type": "function"
    },
    {
      "inputs": [
        {
          "internalType": "address",
          "name": "manager",
          "type": "address"
        }
      ],
      "name": "addGameManager",
      "outputs": [],
      "stateMutability": "nonpayable",
      "type": "function"
    },
    {
      "inputs": [
        {
          "internalType": "address",
          "name": "owner",
          "type": "address"
        },
        {
          "internalType": "address",
          "name": "spender",
          "type": "address"
        }
      ],
      "name": "allowance",
      "outputs": [
        {
          "internalType": "uint256",
          "name": "",
          "type": "uint256"
        }
      ],
      "stateMutability": "view",
      "type": "function"
    },
    {
      "inputs": [
        {
          "internalType": "address",
          "name": "spender",
          "type": "address"
        },
        {
          "internalType": "uint256",
          "name": "value",
          "type": "uint256"
        }
      ],
      "name": "approve",
      "outputs": [
        {
          "internalType": "bool",
          "name": "",
          "type": "bool"
        }
      ],
      "stateMutability": "nonpayable",
      "type": "function"
    },
    {
      "inputs": [
        {
          "internalType": "address",
          "name": "account",
          "type": "address"
        }
      ],
      "name": "balanceOf",
      "outputs": [
        {
          "internalType": "uint256",
          "name": "",
          "type": "uint256"
        }
      ],
      "stateMutability": "view",
      "type": "function"
    },
    {
      "inputs": [
        {
          "internalType": "address[]",
          "name": "recipients",
          "type": "address[]"
        },
        {
          "internalType": "uint256[]",
          "name": "amounts",
          "type": "uint256[]"
        }
      ],
      "name": "batchTransfer",
      "outputs": [],
      "stateMutability": "nonpayable",
      "type": "function"
    },
    {
      "inputs": [
        {
          "internalType": "uint256",
          "name": "amount",
          "type": "uint256"
        }
      ],
      "name": "burn",
      "outputs": [],
      "stateMutability": "nonpayable",
      "type": "function"
    },
    {
      "inputs": [
        {
          "internalType": "address",
          "name": "account",
          "type": "address"
        },
        {
          "internalType": "uint256",
          "name": "amount",
          "type": "uint256"
        }
      ],
      "name": "burnFrom",
      "outputs": [],
      "stateMutability": "nonpayable",
      "type": "function"
    },
    {
      "inputs": [],
      "name": "decimals",
      "outputs": [
        {
          "internalType": "uint8",
          "name": "",
          "type": "uint8"
        }
      ],
      "stateMutability": "pure",
      "type": "function"
    },
    {
      "inputs": [
        {
          "internalType": "address",
          "name": "player",
          "type": "address"
        },
        {
          "internalType": "uint256",
          "name": "amount",
          "type": "uint256"
        }
      ],
      "name": "distributeGameReward",
      "outputs": [],
      "stateMutability": "nonpayable",
      "type": "function"
    },
    {
      "inputs": [
        {
          "internalType": "address",
          "name": "",
          "type": "address"
        }
      ],
      "name": "gameContracts",
      "outputs": [
        {
          "internalType": "bool",
          "name": "",
          "type": "bool"
        }
      ],
      "stateMutability": "view",
      "type": "function"
    },
    {
      "inputs": [
        {
          "internalType": "address",
          "name": "",
          "type": "address"
        }
      ],
      "name": "gameManagers",
      "outputs": [
        {
          "internalType": "bool",
          "name": "",
          "type": "bool"
        }
      ],
      "stateMutability": "view",
      "type": "function"
    },
    {
      "inputs": [],
      "name": "getMintedAmount",
      "outputs": [
        {
          "internalType": "uint256",
          "name": "",
          "type": "uint256"
        }
      ],
      "stateMutability": "view",
      "type": "function"
    },
    {
      "inputs": [
        {
          "internalType": "address",
          "name": "contractAddress",
          "type": "address"
        }
      ],
      "name": "isGameContract",
      "outputs": [
        {
          "internalType": "bool",
          "name": "",
          "type": "bool"
        }
      ],
      "stateMutability": "view",
      "type": "function"
    },
    {
      "inputs": [
        {
          "internalType": "address",
          "name": "manager",
          "type": "address"
        }
      ],
      "name": "isGameManager",
      "outputs": [
        {
          "internalType": "bool",
          "name": "",
          "type": "bool"
        }
      ],
      "stateMutability": "view",
      "type": "function"
    },
    {
      "inputs": [],
      "name": "isMintingEnabled",
      "outputs": [
        {
          "internalType": "bool",
          "name": "",
          "type": "bool"
        }
      ],
      "stateMutability": "view",
      "type": "function"
    },
    {
      "inputs": [],
      "name": "maxSupply",
      "outputs": [
        {
          "internalType": "uint256",
          "name": "",
          "type": "uint256"
        }
      ],
      "stateMutability": "pure",
      "type": "function"
    },
    {
      "inputs": [
        {
          "internalType": "address",
          "name": "to",
          "type": "address"
        },
        {
          "internalType": "uint256",
          "name": "amount",
          "type": "uint256"
        }
      ],
      "name": "mint",
      "outputs": [],
      "stateMutability": "nonpayable",
      "type": "function"
    },
    {
      "inputs": [],
      "name": "mintedAmount",
      "outputs": [
        {
          "internalType": "uint256",
          "name": "",
          "type": "uint256"
        }
      ],
      "stateMutability": "view",
      "type": "function"
    },
    {
      "inputs": [],
      "name": "mintingEnabled",
      "outputs": [
        {
          "internalType": "bool",
          "name": "",
          "type": "bool"
        }
      ],
      "stateMutability": "view",
      "type": "function"
    },
    {
      "inputs": [],
      "name": "name",
      "outputs": [
        {
          "internalType": "string",
          "name": "",
          "type": "string"
        }
      ],
      "stateMutability": "view",
      "type": "function"
    },
    {
      "inputs": [],
      "name": "owner",
      "outputs": [
        {
          "internalType": "address",
          "name": "",
          "type": "address"
        }
      ],
      "stateMutability": "view",
      "type": "function"
    },
    {
      "inputs": [
        {
          "internalType": "address",
          "name": "contractAddress",
          "type": "address"
        }
      ],
      "name": "removeGameContract",
      "outputs": [],
      "stateMutability": "nonpayable",
      "type": "function"
    },
    {
      "inputs": [
        {
          "internalType": "address",
          "name": "manager",
          "type": "address"
        }
      ],
      "name": "removeGameManager",
      "outputs": [],
      "stateMutability": "nonpayable",
      "type": "function"
    },
    {
      "inputs": [],
      "name": "renounceOwnership",
      "outputs": [],
      "stateMutability": "nonpayable",
      "type": "function"
    },
    {
      "inputs": [
        {
          "internalType": "bool",
          "name": "enabled",
          "type": "bool"
        }
      ],
      "name": "setMintingEnabled",
      "outputs": [],
      "stateMutability": "nonpayable",
      "type": "function"
    },
    {
      "inputs": [],
      "name": "symbol",
      "outputs": [
        {
          "internalType": "string",
          "name": "",
          "type": "string"
        }
      ],
      "stateMutability": "view",
      "type": "function"
    },
    {
      "inputs": [],
      "name": "totalSupply",
      "outputs": [
        {
          "internalType": "uint256",
          "name": "",
          "type": "uint256"
        }
      ],
      "stateMutability": "view",
      "type": "function"
    },
    {
      "inputs": [
        {
          "internalType": "address",
          "name": "to",
          "type": "address"
        },
        {
          "internalType": "uint256",
          "name": "value",
          "type": "uint256"
        }
      ],
      "name": "transfer",
      "outputs": [
        {
          "internalType": "bool",
          "name": "",
          "type": "bool"
        }
      ],
      "stateMutability": "nonpayable",
      "type": "function"
    },
    {
      "inputs": [
        {
          "internalType": "address",
          "name": "from",
          "type": "address"
        },
        {
          "internalType": "address",
          "name": "to",
          "type": "address"
        },
        {
          "internalType": "uint256",
          "name": "value",
          "type": "uint256"
        }
      ],
      "name": "transferFrom",
      "outputs": [
        {
          "internalType": "bool",
          "name": "",
          "type": "bool"
        }
      ],
      "stateMutability": "nonpayable",
      "type": "function"
    },
    {
      "inputs": [
        {
          "internalType": "address",
          "name": "newOwner",
          "type": "address"
        }
      ],
      "name": "transferOwnership",
      "outputs": [],
      "stateMutability": "nonpayable",
      "type": "function"
    }
  ],
  "bytecode": "0x60806040526008805460ff19166001179055600060095534801561002257600080fd5b50604051611e60380380611e60833981016040819052610041916102d6565b806040518060400160405280600a8152602001692a37b932902a37b5b2b760b11b81525060405180604001604052806004815260200163544f524560e01b815250816003908161009191906103a5565b50600461009e82826103a5565b5050506001600160a01b0381166100d057604051631e4fbdf760e01b8152600060048201526024015b60405180910390fd5b6100d981610120565b506100fd816100ea6012600a610562565b6100f890633b9aca00610571565b610172565b6101096012600a610562565b61011790633b9aca00610571565b6009555061059b565b600580546001600160a01b038381166001600160a01b0319831681179093556040519116919082907f8be0079c531659141344cd1fd0a4f28419497f9722a3daafe3b4186f6b6457e090600090a35050565b6001600160a01b03821661019c5760405163ec442f0560e01b8152600060048201526024016100c7565b6101a8600083836101ac565b5050565b6001600160a01b0383166101d75780600260008282546101cc9190610588565b909155506102499050565b6001600160a01b0383166000908152602081905260409020548181101561022a5760405163391434e360e21b81526001600160a01b038516600482015260248101829052604481018390526064016100c7565b6001600160a01b03841660009081526020819052604090209082900390555b6001600160a01b03821661026557600280548290039055610284565b6001600160a01b03821660009081526020819052604090208054820190555b816001600160a01b0316836001600160a01b03167fddf252ad1be2c89b69c2b068fc378daa952ba7f163c4a11628f55a4df523b3ef836040516102c991815260200190565b60405180910390a3505050565b6000602082840312156102e857600080fd5b81516001600160a01b03811681146102ff57600080fd5b9392505050565b634e487b7160e01b600052604160045260246000fd5b600181811c9082168061033057607f821691505b60208210810361035057634e487b7160e01b600052602260045260246000fd5b50919050565b601f8211156103a057806000526020600020601f840160051c8101602085101561037d5750805b601f840160051c820191505b8181101561039d5760008155600101610389565b50505b505050565b81516001600160401b038111156103be576103be610306565b6103d2816103cc845461031c565b84610356565b6020601f82116001811461040657600083156103ee5750848201515b600019600385901b1c1916600184901b17845561039d565b600084815260208120601f198516915b828110156104365787850151825560209485019460019092019101610416565b50848210156104545786840151600019600387901b60f8161c191681555b50505050600190811b01905550565b634e487b7160e01b600052601160045260246000fd5b6001815b60018411156104b45780850481111561049857610498610463565b60018416156104a657908102905b60019390931c92800261047d565b935093915050565b6000826104cb5750600161055c565b816104d85750600061055c565b81600181146104ee57600281146104f857610514565b600191505061055c565b60ff84111561050957610509610463565b50506001821b61055c565b5060208310610133831016604e8410600b8410161715610537575081810a61055c565b6105446000198484610479565b806000190482111561055857610558610463565b0290505b92915050565b60006102ff60ff8416836104bc565b808202811582820484141761055c5761055c610463565b8082018082111561055c5761055c610463565b6118b6806105aa6000396000f3fe608060405234801561001057600080fd5b50600436106101e55760003560e01c806377620c1c1161010f5780639fd6db12116100a2578063dd62ed3e11610071578063dd62ed3e14610404578063e045fd041461043d578063f2fde38b14610469578063fa1bbe781461047c57600080fd5b80639fd6db12146103b0578063a9059cbb146103bd578063c04a7d0d146103d0578063d5abeb01146103fc57600080fd5b806388ab4168116100de57806388ab41681461037257806388d695b21461037a5780638da5cb5b1461038d57806395d89b41146103a857600080fd5b806377620c1c1461031657806379cc67901461032957806381cd08ee1461033c578063873911331461034f57600080fd5b806340c10f19116101875780635c74e025116101565780635c74e025146102c55780636ddd474d146102d857806370a08231146102fb578063715018a61461030e57600080fd5b806340c10f191461028157806342966c68146102945780634ea3871a146102a757806355c7ba14146102ba57600080fd5b806323b872dd116101c357806323b872dd146102415780632d38024214610254578063313ce5671461025d57806337d192141461026c57600080fd5b806306fdde03146101ea578063095ea7b31461020857806318160ddd1461022b575b600080fd5b6101f261048f565b6040516101ff91906113f5565b60405180910390f35b61021b61021636600461145f565b610521565b60405190151581526020016101ff565b61023361053b565b6040519081526020016101ff565b61021b61024f366004611489565b61054b565b61023360095481565b604051601281526020016101ff565b61027f61027a3660046114c6565b61056f565b005b61027f61028f36600461145f565b6105c0565b61027f6102a23660046114e8565b610779565b61027f6102b5366004611501565b610822565b60085460ff1661021b565b61027f6102d33660046114c6565b610871565b61021b6102e63660046114c6565b60066020526000908152604090205460ff1681565b6102336103093660046114c6565b6108c2565b61027f6108e0565b61027f6103243660046114c6565b6108f4565b61027f61033736600461145f565b6109a9565b61027f61034a3660046114c6565b610aab565b61021b61035d3660046114c6565b60076020526000908152604090205460ff1681565b600954610233565b61027f61038836600461156f565b610b61565b6005546040516001600160a01b0390911681526020016101ff565b6101f2610e28565b60085461021b9060ff1681565b61021b6103cb36600461145f565b610e37565b61021b6103de3660046114c6565b6001600160a01b031660009081526006602052604090205460ff1690565b610233610e45565b6102336104123660046115e0565b6001600160a01b03918216600090815260016020908152604080832093909416825291909152205490565b61021b61044b3660046114c6565b6001600160a01b031660009081526007602052604090205460ff1690565b61027f6104773660046114c6565b610e61565b61027f61048a36600461145f565b610e9f565b60606003805461049e90611613565b80601f01602080910402602001604051908101604052809291908181526020018280546104ca90611613565b80156105175780601f106104ec57610100808354040283529160200191610517565b820191906000526020600020905b8154815290600101906020018083116104fa57829003601f168201915b5050505050905090565b60003361052f818585611017565b60019150505b92915050565b600061054660025490565b905090565b600033610559858285611029565b6105648585856110a8565b506001949350505050565b610577611107565b6001600160a01b038116600081815260076020526040808220805460ff19169055517f6de82f827471160af273ccdc03ce8be3a40f2f9fe7fa4110cd02799717bb3d919190a250565b6105c8611107565b60085460ff1661061f5760405162461bcd60e51b815260206004820152601e60248201527f546f7265546f6b656e3a204d696e74696e672069732064697361626c6564000060448201526064015b60405180910390fd5b6001600160a01b0382166106755760405162461bcd60e51b815260206004820152601a60248201527f546f7265546f6b656e3a20496e76616c696420616464726573730000000000006044820152606401610616565b600081116106955760405162461bcd60e51b81526004016106169061164d565b6106a16012600a611792565b6106af90633b9aca006117a1565b816009546106bd91906117b8565b11156107155760405162461bcd60e51b815260206004820152602160248201527f546f7265546f6b656e3a2045786365656473206d6178696d756d20737570706c6044820152607960f81b6064820152608401610616565b61071f8282611134565b806009600082825461073191906117b8565b90915550506040518181526001600160a01b038316907f3f2c9d57c068687834f0de942a9babb9e5acab57d516d3480a3c16ee165a4273906020015b60405180910390a25050565b610781611107565b600081116107a15760405162461bcd60e51b81526004016106169061164d565b806107ab336108c2565b10156107c95760405162461bcd60e51b8152600401610616906117cb565b6107d3338261116e565b80600960008282546107e59190611802565b909155505060405181815233907ffd38818f5291bf0bb3a2a48aadc06ba8757865d1dabd804585338aab3009dcb69060200160405180910390a250565b61082a611107565b6008805460ff19168215159081179091556040519081527fb6c727d83bace6eef762275cc927295dcd906c8041f03f05cf07685323bfb6da9060200160405180910390a150565b610879611107565b6001600160a01b038116600081815260066020526040808220805460ff19169055517f2787914e393eae017c5d63972ae40b8a6e095f82f7c2df7b8cc0947364f44c3b9190a250565b6001600160a01b038116600090815260208190526040812054610535565b6108e8611107565b6108f260006111a4565b565b6108fc611107565b6001600160a01b03811661095d5760405162461bcd60e51b815260206004820152602260248201527f546f7265546f6b656e3a20496e76616c6964206d616e61676572206164647265604482015261737360f01b6064820152608401610616565b6001600160a01b038116600081815260076020526040808220805460ff19166001179055517fa0334d5e7f40dc27ad1f00eea8f14a0aa36b54c3d390f2d074e877fd1d0c64fe9190a250565b6109b1611107565b6001600160a01b038216610a075760405162461bcd60e51b815260206004820152601a60248201527f546f7265546f6b656e3a20496e76616c696420616464726573730000000000006044820152606401610616565b60008111610a275760405162461bcd60e51b81526004016106169061164d565b80610a31836108c2565b1015610a4f5760405162461bcd60e51b8152600401610616906117cb565b610a59828261116e565b8060096000828254610a6b9190611802565b90915550506040518181526001600160a01b038316907ffd38818f5291bf0bb3a2a48aadc06ba8757865d1dabd804585338aab3009dcb69060200161076d565b610ab3611107565b6001600160a01b038116610b155760405162461bcd60e51b815260206004820152602360248201527f546f7265546f6b656e3a20496e76616c696420636f6e7472616374206164647260448201526265737360e81b6064820152608401610616565b6001600160a01b038116600081815260066020526040808220805460ff19166001179055517f6c714ab98f337e5ba3203dce1dd577e948f63b10c5300a075c35c4df3a2700679190a250565b3360009081526006602052604090205460ff1680610b8e57503360009081526007602052604090205460ff165b80610ba357506005546001600160a01b031633145b610bbf5760405162461bcd60e51b815260040161061690611815565b828114610c185760405162461bcd60e51b815260206004820152602160248201527f546f7265546f6b656e3a20417272617973206c656e677468206d69736d6174636044820152600d60fb1b6064820152608401610616565b82610c655760405162461bcd60e51b815260206004820152601760248201527f546f7265546f6b656e3a20456d707479206172726179730000000000000000006044820152606401610616565b6000805b82811015610c9f57838382818110610c8357610c8361186a565b9050602002013582610c9591906117b8565b9150600101610c69565b5080610caa336108c2565b1015610cc85760405162461bcd60e51b8152600401610616906117cb565b60005b84811015610de7576000868683818110610ce757610ce761186a565b9050602002016020810190610cfc91906114c6565b6001600160a01b031603610d5e5760405162461bcd60e51b8152602060048201526024808201527f546f7265546f6b656e3a20496e76616c696420726563697069656e74206164646044820152637265737360e01b6064820152608401610616565b6000848483818110610d7257610d7261186a565b9050602002013511610d965760405162461bcd60e51b81526004016106169061164d565b610ddf33878784818110610dac57610dac61186a565b9050602002016020810190610dc191906114c6565b868685818110610dd357610dd361186a565b905060200201356110a8565b600101610ccb565b5060408051828152602081018690527f7b4fb3ffa747d03664dcd3bb02933bb6ab3f5799103a30a80659a5c1aa7ecc86910160405180910390a15050505050565b60606004805461049e90611613565b60003361052f8185856110a8565b6000610e536012600a611792565b61054690633b9aca006117a1565b610e69611107565b6001600160a01b038116610e9357604051631e4fbdf760e01b815260006004820152602401610616565b610e9c816111a4565b50565b3360009081526006602052604090205460ff1680610ecc57503360009081526007602052604090205460ff165b80610ee157506005546001600160a01b031633145b610efd5760405162461bcd60e51b815260040161061690611815565b6001600160a01b038216610f5d5760405162461bcd60e51b815260206004820152602160248201527f546f7265546f6b656e3a20496e76616c696420706c61796572206164647265736044820152607360f81b6064820152608401610616565b60008111610f7d5760405162461bcd60e51b81526004016106169061164d565b610f878282611134565b8060096000828254610f9991906117b8565b90915550506040518181526001600160a01b038316907f824c2a2a49e9cfaa3b02241c2dc5368e338376d92a398ddfb7d15a56eb7c0d619060200160405180910390a2816001600160a01b03167f3f2c9d57c068687834f0de942a9babb9e5acab57d516d3480a3c16ee165a42738260405161076d91815260200190565b61102483838360016111f6565b505050565b6001600160a01b038381166000908152600160209081526040808320938616835292905220546000198110156110a2578181101561109357604051637dc7a0d960e11b81526001600160a01b03841660048201526024810182905260448101839052606401610616565b6110a2848484840360006111f6565b50505050565b6001600160a01b0383166110d257604051634b637e8f60e11b815260006004820152602401610616565b6001600160a01b0382166110fc5760405163ec442f0560e01b815260006004820152602401610616565b6110248383836112cb565b6005546001600160a01b031633146108f25760405163118cdaa760e01b8152336004820152602401610616565b6001600160a01b03821661115e5760405163ec442f0560e01b815260006004820152602401610616565b61116a600083836112cb565b5050565b6001600160a01b03821661119857604051634b637e8f60e11b815260006004820152602401610616565b61116a826000836112cb565b600580546001600160a01b038381166001600160a01b0319831681179093556040519116919082907f8be0079c531659141344cd1fd0a4f28419497f9722a3daafe3b4186f6b6457e090600090a35050565b6001600160a01b0384166112205760405163e602df0560e01b815260006004820152602401610616565b6001600160a01b03831661124a57604051634a1406b160e11b815260006004820152602401610616565b6001600160a01b03808516600090815260016020908152604080832093871683529290522082905580156110a257826001600160a01b0316846001600160a01b03167f8c5be1e5ebec7d5bd14f71427d1e84f3dd0314c0f7b2291e5b200ac8c7c3b925846040516112bd91815260200190565b60405180910390a350505050565b6001600160a01b0383166112f65780600260008282546112eb91906117b8565b909155506113689050565b6001600160a01b038316600090815260208190526040902054818110156113495760405163391434e360e21b81526001600160a01b03851660048201526024810182905260448101839052606401610616565b6001600160a01b03841660009081526020819052604090209082900390555b6001600160a01b038216611384576002805482900390556113a3565b6001600160a01b03821660009081526020819052604090208054820190555b816001600160a01b0316836001600160a01b03167fddf252ad1be2c89b69c2b068fc378daa952ba7f163c4a11628f55a4df523b3ef836040516113e891815260200190565b60405180910390a3505050565b602081526000825180602084015260005b818110156114235760208186018101516040868401015201611406565b506000604082850101526040601f19601f83011684010191505092915050565b80356001600160a01b038116811461145a57600080fd5b919050565b6000806040838503121561147257600080fd5b61147b83611443565b946020939093013593505050565b60008060006060848603121561149e57600080fd5b6114a784611443565b92506114b560208501611443565b929592945050506040919091013590565b6000602082840312156114d857600080fd5b6114e182611443565b9392505050565b6000602082840312156114fa57600080fd5b5035919050565b60006020828403121561151357600080fd5b813580151581146114e157600080fd5b60008083601f84011261153557600080fd5b50813567ffffffffffffffff81111561154d57600080fd5b6020830191508360208260051b850101111561156857600080fd5b9250929050565b6000806000806040858703121561158557600080fd5b843567ffffffffffffffff81111561159c57600080fd5b6115a887828801611523565b909550935050602085013567ffffffffffffffff8111156115c857600080fd5b6115d487828801611523565b95989497509550505050565b600080604083850312156115f357600080fd5b6115fc83611443565b915061160a60208401611443565b90509250929050565b600181811c9082168061162757607f821691505b60208210810361164757634e487b7160e01b600052602260045260246000fd5b50919050565b60208082526028908201527f546f7265546f6b656e3a20416d6f756e74206d75737420626520677265617465604082015267072207468616e20360c41b606082015260800190565b634e487b7160e01b600052601160045260246000fd5b6001815b60018411156116e6578085048111156116ca576116ca611695565b60018416156116d857908102905b60019390931c9280026116af565b935093915050565b6000826116fd57506001610535565b8161170a57506000610535565b8160018114611720576002811461172a57611746565b6001915050610535565b60ff84111561173b5761173b611695565b50506001821b610535565b5060208310610133831016604e8410600b8410161715611769575081810a610535565b61177660001984846116ab565b806000190482111561178a5761178a611695565b029392505050565b60006114e160ff8416836116ee565b808202811582820484141761053557610535611695565b8082018082111561053557610535611695565b6020808252601f908201527f546f7265546f6b656e3a20496e73756666696369656e742062616c616e636500604082015260600190565b8181038181111561053557610535611695565b60208082526035908201527f546f7265546f6b656e3a204f6e6c7920617574686f72697a65642067616d6520604082015274636f6e747261637473206f72206d616e616765727360581b606082015260800190565b634e487b7160e01b600052603260045260246000fdfea26469706673582212205af45a1ea0b6eb05e51ae1a5eb000043d605a4c6cecff01a49171bf068a552d064736f6c634300081a0033",
  "linkReferences": {},
  "deployedLinkReferences": {}
}